:020000040800F2
:1000000070470020450100080904000801040008A9
:1000100005040008E5020008A3090008000000002C
:10002000000000000000000000000000D1050008F2
:10003000E902000800000000B3010008BD06000846
:100040005F0100085F0100085F0100085F01000810
:100050005F0100085F0100085F0100085F01000800
:100060005F0100085F0100085F0100085F010008F0
:100070005F0100085F0100085F0100085F010008E0
:100080005F0100085F0100085F0100085F010008D0
:100090005F0100085F0100085F0100085F010008C0
:1000A0005F0100085F0100085F0100085F010008B0
:1000B0005F0100085F0100085F0100085F010008A0
:1000C0005F0100085F0100085F0100085F01000890
:1000D0005F010008350700085F0100085F010008A4
:1000E0005F0100085F0100085F0100085F01000870
:1000F0005F0100085F0100085F0100085F01000860
:100100005F0100085F0100085F0100085F0100084F
:100110005F0100085F0100085F0100085F0100083F
:100120005F0100085F0100085F0100085F0100082F
:10013000DFF80CD000F0C4F800480047D50E0008E6
:10014000704700200648804706480047FEE7FEE764
:10015000FEE7FEE7FEE7FEE7FEE7FEE7FEE7FEE777
:10016000D50600083101000872B6704762B67047C4
:10017000EFF3108072B6704780F310887047B0FAC2
:1001800080F0704717484FF0FF010170002080F3A6
:10019000098815484FF08051016062B6FEE71248A9
:1001A0004FF08051016070470F484FF0805101605F
:1001B000704772B6EFF3098028B1203880E8F00F5D
:1001C0000A4909680860094809490A680260106814
:1001D00090E8F00F203080F309884EF0040E62B6EC
:1001E000704700BF22ED00E004ED00E03800002081
:1001F0003C0000202DE9F05F0546002092469B461A
:1002000088460646814640241BE02846414647462C
:10021000224600F045F853465A46C01A914110D381
:1002200011461846224600F02CF82D1A67EB0108FB
:100230004F4622460120002100F023F817EB000969
:100240004E41201EA4F10104DFDC484631462A4617
:100250004346BDE8F09F30B50B4601460020202202
:10026000012409E021FA02F59D4205D303FA02F5C3
:10027000491B04FA02F52844151EA2F10102F1DC23
:1002800030BD202A04DB203A00FA02F1002070473A
:100290009140C2F1200320FA03F3194390407047C4
:1002A000202A04DB203A21FA02F00021704721FACB
:1002B00002F3D040C2F12002914008431946704732
:1002C000064C074D06E0E06840F0010394E80700A3
:1002D00098471034AC42F6D3FFF72EFF7C2300087A
:1002E0009C23000800BFFEE770472DE9F04102465D
:1002F00000250026002000230024002791F803C0D9
:100300000CF00F0591F803C00CF0100CBCF1000FBD
:1003100003D091F802C04CEA050591F800C0BCF189
:10032000000F31D0146800202BE04FF0010C0CFAC4
:1003300000F3B1F800C00CEA03069E4220D183000E
:100340004FF00F0C0CFA03F7BC4305FA03FC4CEA20
:10035000040491F803C0BCF1280F06D14FF0010C42
:100360000CFA00FCC2F814C00AE091F803C0BCF11A
:10037000480F05D14FF0010C0CFA00FCC2F810C078
:10038000401C0828D1D31460B1F800C0BCF1FF0FA5
:1003900034DD546800202EE000F1080C4FF0010815
:1003A00008FA0CF3B1F800C00CEA03069E4221D112
:1003B00083004FF00F0C0CFA03F7BC4305FA03FC63
:1003C0004CEA040491F803C0BCF1280F05D100F1F8
:1003D000080C08FA0CF8C2F8148091F803C0BCF1BC
:1003E000480F07D100F1080C4FF0010808FA0CF88B
:1003F000C2F81080401C0828CED35460BDE8F081BC
:1004000000BFFEE700BFFEE7704708B54FF4A060ED
:1004100000F046F825208DF8000001208DF801003D
:100420008DF802008DF80300684600F001F808BD61
:1004300070B5002100230F22C47804B3154C246842
:1004400004F4E064C4F5E064210AC1F10403CA4085
:10045000447804FA03F184781440214309010E4CD6
:100460000678A155047804F01F050124AC400578F6
:100470006D11AD0005F1E025C5F8004109E00478F3
:1004800004F01F050124AC40044D0678761145F8B0
:10049000264070BD0CED00E000E400E080E100E0EB
:1004A00002490143024A1160704700000000FA054A
:1004B0000CED00E010B5002807DA0A07140E054A13
:1004C00000F00F031B1FD45403E00A07130E024A67
:1004D000135410BD18ED00E000E400E029B1064A15
:1004E00092690243044B9A6104E0034A9269824391
:1004F000014B9A61704700000010024030B50021A6
:100500000022002400232D4D6D6805F00C0121B15F
:10051000042905D0082923D105E0294D056022E0F2
:10052000274D05601FE0254D6D6805F47012234DC1
:100530006D6805F48034022505EB92421CB9214D0B
:10054000554305600BE01D4D6D6805F400351DB188
:100550001C4D5543056002E0194D5543056002E00E
:10056000174D056000BF00BF144D6D6805F0F00128
:100570000909154D6B5C0568DD4045600F4D6D68E0
:1005800005F4E061090A104D6B5C4568DD4085604B
:100590000A4D6D6805F46051C90A0B4D6B5C4568E6
:1005A000DD40C560054D6D6805F44041890B074D80
:1005B0006B5CC568B5FBF3F5056130BD001002400A
:1005C00000127A0000093D001400002024000020E1
:1005D000704710B500F002F810BD00000CB5002007
:1005E000019000903348006840F480303149086041
:1005F00000BF3048006800F4003000900198401CB3
:100600000190009818B90198B0F5A06FF1D1294870
:10061000006800F4003010B10120009001E00020DB
:1006200000900098012843D12348006840F0100052
:10063000214908600846006820F003000860084669
:10064000006840F0020008601A4840681949486094
:100650000846406848600846406840F4806048604A
:100660000846406820F47C1048600846406840F422
:10067000E81048600846006840F08070086000BFDD
:100680000C48006800F000700028F9D00948406864
:1006900020F00300074948600846406840F0020027
:1006A000486000BF0348406800F00C000828F9D1FA
:1006B0000CBD0000001002400020024010B501F007
:1006C000A7FA28B101F044FA01F088FD01F058FAC8
:1006D00010BD000010B51348006840F0010011493A
:1006E000086008464068104908400E4948600846BE
:1006F00000680E4908400B4908600846006820F46D
:10070000802008600846406820F4FE0048604FF4EE
:100710001F008860FFF75DFF4FF00060044908602C
:1007200010BD0000001002400000FFF8FFFFF6FEC1
:1007300008ED00E010B540F22551064800F06DF8D4
:1007400038B1044800F024F9C4B22146014800F051
:1007500024F910BD0038014021B1828942F40052D1
:10076000828104E082894DF6FF731A4082817047CE
:1007700000B585B001210420FFF7B0FE01218803F8
:10078000FFF7ACFE4FF40070ADF8100018208DF8A4
:10079000130003208DF8120004A91748FFF7A5FDE8
:1007A0004FF48060ADF8100004208DF8130004A908
:1007B0001148FFF79AFD4FF4E13000900020ADF8AA
:1007C0000400ADF80600ADF80800ADF80C000C20F0
:1007D000ADF80A006946094800F06EF8FFF715FE0B
:1007E000012240F22551054800F041F8012103485B
:1007F000FFF7B2FF05B000BD00080140003801401E
:1008000002460020B1F5007F00D100BF13880B40E5
:100810000BB1012000E00020704770B502460024B3
:1008200000230025002040F66A16B14200D100BF27
:10083000C1F3421501F01F03012606FA03F3012D4F
:1008400002D19689334006E0022D02D1168A334048
:1008500001E0968A33400C12012606FA04F4168849
:10086000344013B10CB1012000E0002070BDF0B5A0
:100870000346002400260025002040F66A17B942EE
:1008800000D100BF1846C1F3421401F01F06012732
:1008900007FA06F5012C01D10C3004E0022C01D13D
:1008A000103000E014301AB107682F43076002E0EF
:1008B0000768AF430760F0BD2DE9F04786B00546F5
:1008C0000E460024A24600BFA1460027B08900B111
:1008D00000BF2F462C8A4CF6FF700440F08804437A
:1008E0002C82AC894EF6F3100440B088318908435D
:1008F000718908430443AC81AC8A4FF6FF40044041
:10090000B0890443AC8201A8FFF7F8FD1F48874275
:1009100002D1DDF810A001E0DDF80CA0A88900F4F8
:10092000004040B10AEBCA0000EB0A1031684900F0
:10093000B0FBF1F807E00AEBCA0000EB0A103168DF
:100940008900B0FBF1F86420B8FBF0F00401200945
:10095000642101FB1089A88900F4004040B13220D5
:1009600000EBC900B0FBF1F000F00700044308E021
:10097000322000EB09106421B0FBF1F000F00F0011
:1009800004432C8106B0BDE8F08700000038014028
:1009900001468888C0F308007047C1F308028280CE
:1009A000704700BFFEE700000FB4054B10B503A968
:1009B000044A029800F02CF810BC5DF814FB00000B
:1009C000650D00087800002010B50446204600F0B0
:1009D000DBF9401E10BD02E008C8121F08C1002A42
:1009E000FAD170477047002001E001C1121F002AB0
:1009F000FBD17047506002604160086070475060F2
:100A00000260416008607047486001607047000004
:100A10002DE9FF4F8BB09A460F460546002606E0AB
:100A200025280BD052460D9990476D1C761C2878CE
:100A30000028F5D10FB03046BDE8F08F0024A04665
:100A40000122604900E0044315F8013F203B02FA0F
:100A500003F00842F7D128782E2817D115F8010F96
:100A600044F004042A280ED06FF02F022878A0F159
:100A7000300109290AD808EB880102EB410100EB9B
:100A800001086D1CF2E757F8048B6D1C2878692863
:100A90003ED006DC0028CDD063280BD0642804D1DA
:100AA00036E0732810D075284BD052460D999047E8
:100AB000761C85E017F8040B8DF8000000208DF8F7
:100AC0000100E946012003E057F8049B4FF0FF3096
:100AD00061074FF0000401D40AE0641C44450DDABC
:100AE0008442FADB19F804100029F6D106E0641CF0
:100AF0008442FCDB19F804100029F8D1264404E0F4
:100B000019F8010B52460D999047641EF8D257E030
:100B100001CF4FF00A0B002802DA40422D2102E0FB
:100B2000210504D52B218DF82410012103E0E107D4
:100B300005D02021F7E70DF1200908910CE00021F4
:100B4000F9E701CF4FF00A0BF9E75946FFF783FBAE
:100B500001F1300209F8012D0028F6D1ADEB0900B2
:100B600000F1200B600701D44FF00108D84502DDE9
:100B7000A8EB0B0000E000208046002406E009A856
:100B80005246005D0D999047641C761C089884427B
:100B9000F5DB04E0302052460D999047761CB8F101
:100BA0000001A8F10108F5DC05E019F8010B524637
:100BB0000D999047761CBBF10001ABF1010BF4DC01
:100BC0006D1C34E7092801000246481E1040101A27
:100BD00070477CB50446204600F040F805466A465A
:100BE00001A900F089FA2046DDE9002100F0D4F8DF
:100BF0007CBD70B50446204600F004F805462C6024
:100C0000284670BD2DE9F0410446204600F026F844
:100C1000061F204600F027F80746314600F0F8FA94
:100C200005462846BDE8F081416841F00101416078
:100C30007047416841F0020141607047416821F00E
:100C4000020141607047027902F003020A434260E8
:100C50007047416821F001014160704701464868D2
:100C600020F003007047014601F10800704710B5FD
:100C7000FFF795FA10BD000010B507480CC80748EB
:100C800000680021FFF7B6FA0549086008460068C9
:100C900000F00EF810BD0000400000200000002011
:100CA0004800002010B5FFF77FFA10BDFFF76AFA81
:100CB00010B50446002000F047FB204600F02AFB58
:100CC00010BDF0B50446059D581920F007004FF0FF
:100CD0008077061F30463760061F30463460061F97
:100CE000304632604FF01237061F304637604FF003
:100CF0000337061F304637604FF00237061F304675
:100D000037607F10061F30463760061F304631605F
:100D10004FF01137061F304637604FF01037061F6F
:100D2000304637604FF00937061F304637604FF0C6
:100D30000837061F304637604FF00737061F30462A
:100D400037604FF00637061F304637604FF00537E3
:100D5000061F304637604FF00437061F30463760B5
:100D6000F0BD000070B504460D46E1B20548FFF73E
:100D700014FE00BF80210348FFF742FD0028F9D090
:100D8000204670BD0038014010B50446204600F0F2
:100D9000B3FEC0F1200010BD30B5114C04EBC114FE
:100DA00054F8223083600E4C743CC460D8607434B4
:100DB00004EBC11444F82200094C743C2569012459
:100DC0008C402543064C743C2561143454F8215062
:100DD000012494402C43024D603D45F8214030BD34
:100DE000CC36002000BF00BFFEE700001FB500208A
:100DF00008490968084A12680923CDE90032CDE99B
:100E000002100346054A06A1074801F01FF804B086
:100E100010BD00007823000874230008E50D0008C9
:100E200069646C6500000000A005002001460348CD
:100E3000814201D1012070470020FCE7A00500207D
:100E40000348007808B1012070470020FCE700004B
:100E5000280000200348007808B1012070470020D6
:100E6000FCE7000029000020014604480068814298
:100E700001D1012070470020FCE70000380000206D
:100E800010B50024FFF7DCFF00B110BDFFF7E2FF53
:100E900000B1FAE700BF00F03BFE044600BF00F0DF
:100EA000ADFA0B49086008460068FFF7DDFF28B17E
:100EB00000BF204600F026FE00BFE6E7FFF7D7FEA2
:100EC00000BF204600F01EFE00BF00BFDDE70000AF
:100ED0003C00002010B586B0FFF74AFC31A0FFF7B8
:100EE00063FD00F019FE4FF4FA71002000F092FF4C
:100EF00001200021324ACDE90221009141F28832DD
:100F00000B46019104902F4801F080F904461CB172
:100F100021462DA0FFF748FD2A4801F0E5F90446D7
:100F20001CB1214635A0FFF73FFD02200021414AB8
:100F3000CDE9022104904FF47A7100200246034665
:100F4000CDE900103C4801F061F904461CB121468E
:100F50003AA0FFF729FD384801F0C6F904461CB154
:100F6000214643A0FFF720FD4FA0FFF71DFD1420F1
:100F70004FF48061504A0323CDE90032CDE90210DD
:100F800000234E4A4EA1504800F060FF04461CB1B9
:100F900021464EA0FFF708FD00F0A2FE002006B09B
:100FA00010BD000057656C636F6D6520746F205431
:100FB000656E63656E744F532074696E790D0A0017
:100FC000E51600088000002054656E63656E744F5E
:100FD000532043726561746520746573745F74692E
:100FE0006D65725F3030206661696C2120636F64CB
:100FF00065203A202564200D0A00000054656E63C8
:10100000656E744F5320437265617465207374611B
:10101000727420746573745F74696D65725F3030CB
:10102000206661696C2120636F6465203A20256425
:10103000200D0A0009170008B000002054656E63F7
:10104000656E744F532043726561746520746573D7
:10105000745F74696D65725F3031206661696C21FF
:1010600020636F6465203A202564200D0A0000008B
:1010700054656E63656E744F532043726561746589
:1010800020737461727420746573745F74696D6524
:10109000725F3031206661696C2120636F64652066
:1010A0003A202564200D0A0063726561746520741E
:1010B00061736B310D0A000048010020C116000861
:1010C0007461736B31000000E000002054656E63B2
:1010D000656E744F5320437265617465207461734B
:1010E0006B31206661696C2120636F6465203A2052
:1010F0002564200D0A0000002DE9F04104460F464A
:101100009046802C06D200252046E11704EB917111
:101110008E1009E02046FFF757FC0546681F44FA89
:1011200000F080F02006AD1F3D60C8F80060BDE80B
:10113000F08100000E4A13469A60DA6000221A61BC
:10114000002011E000230A4A143242F82030002126
:1011500007E0074B03F1740202EBC01242F82130A2
:10116000491C2029F5DB401C1828EBDB70470000E8
:101170005836002070B504460D46FFF7DBFF2946C0
:10118000204600F00AFE70BD10B500240BE00749B0
:1011900001EB041000F0F8FD044901EB04100449D0
:1011A00000F0BAFD641C0A2CF1D310BDCC42002023
:1011B0007000002070B50446256900BFD4E9061010
:1011C0004860016000BF00BF0020206195F840002A
:1011D0000A2808D095F84010284600F06FFF0A2032
:1011E00085F8400009E0687C217D884205D0217D9A
:1011F000284600F063FF0A20207570BD10B5044634
:101200002046FFF7D7FF0421204600F070F810BDFC
:1012100002465018704770B50446201D00F094FD3A
:1012200008B1002001E06068303805460DB1687CE7
:1012300070BD0A20FCE770B502460B461D1D2868EC
:1012400007E0A0F13006517C747CA14200DA02E094
:101250000068A842F5D100BF02F130014468416046
:1012600008604C60216000BF00BF536400BF117C68
:1012700041F00201117400BF70BD10B5044604F1C5
:10128000300000F05BFD2046616CFFF7D4FF10BD1D
:1012900010B5044604F1300000F050FD00206064F9
:1012A00000BF207C20F00200207400BF10BD70B58C
:1012B00004460D4600BF207C00F0020020B184F8F7
:1012C00048502046FFF7E4FF00BF207C00F00100FB
:1012D00010B1204600F050FA00BF207C00F004005E
:1012E00000B170BD204600F037F800BFF9E72DE9E6
:1012F000F04105460F466C68266806E0A4F1300010
:101300003946FFF7D4FF34462668281D8442F5D1BC
:10131000BDE8F08170B504462546B5F1807F00D365
:1013200011E025F07F40401E4FF0E02148610F2181
:101330004FF0FF30FFF7BEF800204FF0E02188614A
:101340000720086100BF70BD10B5044621464FF06C
:10135000FF30FFF7AFF810BD10B50446607C0649BA
:101360000968497C884203D1204600F021F802E058
:10137000204600F003F810BD380000202DE9F041B0
:1013800005466E7C094800EBC604204600F0E4FCEC
:1013900010B1304600F09CF805F130072146384680
:1013A0002268FFF72CFB00BFBDE8F0814805002054
:1013B00070B50446657C084800EBC506304600F071
:1013C000CBFC10B1284600F083F8314604F1300020
:1013D00000F0ABFC70BD00004805002070B504466D
:1013E000054800EBC405284600F0B6FC08B1002013
:1013F00070BD28683038FBE748050020044890F8A5
:101400005400034A02EBC0010868303870470000FE
:10141000480500200A210E4A82F85410002108468F
:1014200008E00B4A02EBC0010960496000BF411CA3
:10143000C9B208460A28F4D3002006E00022044975
:10144000503141F82020411CC8B20028F6D0704726
:10145000480500200146064800EBC1021068A0F1D3
:101460003003186B904201D1012070470020FCE747
:101470004805002070B506460A4800EBC605284618
:1014800000F06AFC60B92C6800BFD4E90010FFF7D7
:10149000BBFA00BF2946204600F047FC00BF00BF52
:1014A00070BD00004805002070B50025074C03E022
:1014B00005F12000C5B2241D20680028F8D020685E
:1014C00000F01AFB2844C5B2284670BD98050020DC
:1014D00000BF42110C4951F8221000F01F02C2F166
:1014E0001F0301229A4011434311074A42F8231077
:1014F00000BFA2F1500191F85410814203DDA2F126
:10150000500181F8540070479805002070B50546D9
:101510006C7C164800EBC40600BFD5E90C10FFF741
:1015200073FA00BF304600F017FC98B100BF61119C
:101530000E48503050F8210004F01F01C1F11F0285
:1015400001219140884362110849503141F822003D
:1015500000BF00BF054890F85400A04204D1FFF737
:10156000A3FF024981F8540070BD00004805002027
:1015700070B5054600262948007800B170BD00BF4F
:1015800000F0C6FA064600BF2846FFF727FF0446CC
:101590001CB12046FFF74AFC28B100BF304600F0DE
:1015A000B1FA00BFEAE72846FFF754FF28B100BFB1
:1015B000304600F0A7FA00BFE0E7FFF74BFC28B188
:1015C00000BF304600F09EFA00BFD7E7206D10B193
:1015D000206D401E2065206D28B100BF304600F010
:1015E00091FA00BFCAE70E490968487CFFF742FF3D
:1015F0002846FFF7F3FE0446E06C18B90948006876
:10160000206501E0E06C206500BF304600F07AFA0A
:1016100000BFFFF735FC00BFB0E700005800002016
:10162000380000205400002010B5002000F0E8FC35
:1016300010BD2DE9F04105464FF00A08AE6B09E0F8
:10164000A6F118073846FFF7E6FD0446444500DAE0
:10165000A046366805F138008642F1D14046BDE823
:10166000F08170B50546AC6B266805E0A4F1180062
:10167000FFF7C4FD3446266805F138008442F5D1F1
:1016800070BD10B5044604F1280000F080FB04F1A1
:10169000300000F07CFB04F1380000F078FB0A20F9
:1016A00084F84000002084F8480060646065A0650C
:1016B00010BD0146087C08B9012070470020FCE7F6
:1016C00007E004A0FFF770F94FF4FA60002100F082
:1016D00051FCF6E77461736B312072756E6E696E42
:1016E000670D0A0010B5044601A0FFF75DF910BDB3
:1016F00074696D6572206F6E652063616C6C6261E8
:10170000636B0D0A0000000010B5044601A0FFF74E
:101710004BF910BD74696D657220706572696F64F4
:1017200069632063616C6C6261636B0D0A00000089
:1017300070B5064614461D46002184EA0100694042
:10174000084301D1642070BD4FF0FF3184EA0100ED
:101750006940084301D16520F5E7C6E908452246FE
:101760002B46304600F014F800BF307C40F00100FA
:10177000307400BF0020E6E710B50446204600F0B4
:1017800059F800BF207C20F00100207400BF10BD7C
:101790002DE9FF5F81464FF0000BDA4600210F462E
:1017A000884600BF00F0B4F9834600BFDDE90201BE
:1017B000C9E908011E4804680FE0A4F1280ADAE923
:1017C0000810CD1940EB0806D9E90810491BB041B3
:1017D00000D205E02F46B046246815488442ECD17B
:1017E00000BFD9E90810C91B60EB0800C9E908105F
:1017F0000F4884420BD0BAF1000F08D0DAE9083064
:10180000D9E90812591A60EB0200CAE9081009F177
:1018100028006168606004604160086000BF00BF2C
:1018200000BF584600F06EF900BFBDE8FF9F000002
:101830004C00002070B50446002600BF00F068F997
:10184000064600BF04F1280000F096FA08B1002017
:1018500001E0A06A28380546F5B11649A06A884219
:101860001AD06FF001014810D4E908238A1A60EBFE
:101870000300D5E90813511A984108D3D5E9082087
:10188000D4E90831D2184841C5E9082004E06FF0D6
:1018900001014810C5E9081000BFD4E90A104860EA
:1018A000016000BF00BF00BF304600F02BF900BF51
:1018B00070BD00004C0000202DE9F04704460D46A5
:1018C0004FF0000A00BF00F023F9824600BF27480E
:1018D000D0E9001009196841244AC2E900102448DF
:1018E00000F04AFA30B100BF504600F00BF900BFDB
:1018F000BDE8F0871E480068A0F12806D6E9080177
:10190000201A75EB010003D30021316271620CE0F3
:10191000D6E90810091B60EB0500C6E9081000BFF6
:10192000504600F0EFF800BFE2E711480768D7F82B
:10193000009010E0A7F128080023D8E908105940CA
:101940005840014300D009E002214046FFF7AFFCB8
:101950004F46D7F8009006488742EBD100BF00BF42
:10196000504600F0CFF800BF00BFC1E730000020B4
:101970004C000020002070472DE9F041054600266C
:10198000002700BF00F0C4F8064600BF1B49D5E998
:101990000420D1E90031D2184841C5E90420184893
:1019A00084680AE0A4F10807D5E90430D7E90412F5
:1019B000591A904100D204E024681148083084424A
:1019C000F0D100BF05F1080061686060046041600B
:1019D000086000BF00BF0A48816805F10800814225
:1019E00004D1074AD5E90410C2E9001000BF30460F
:1019F00000F088F800BFBDE8F08100003000002052
:101A0000600000202DE9F0410446002700BF00F0EF
:101A10007FF8074600BF17488068A0F1080500BF9F
:101A2000D4E902104860016000BF00BFA54219D18F
:101A300004F108000168814201D1012100E0002188
:101A400009B1002001E0A068083806462EB94FF021
:101A5000FF31084A1160516004E0064AD6E90410DB
:101A6000C2E9001000BF384600F04CF800BFBDE8E6
:101A7000F08100006000002070B51D48D0E9002012
:101A80001C49D1E90031D21A884100D270BD00F062
:101A9000C9F8174885682E6820E0A5F108041548A4
:101AA000D4E90412D0E90030591A904100D219E06B
:101AB0002046FFF7A7FF208D022807D1D4E90801AF
:101AC000C4E904012046FFF757FF02E0032084F831
:101AD0002A00D4E90010884735462E6804480830AB
:101AE0008542DAD100BF00F0CBF800BFCEE700009E
:101AF000600000203000002010B504462046FEF7AC
:101B00003EFB10BD10B504462046FEF735FB10BD68
:101B100010B5FEF72DFB10BD10B5FFF7ADF8FFF7C0
:101B200079FC4FF440510948FFF724FBFFF72CFBE9
:101B3000FFF75CF904460CB1204610BDFFF71AFF11
:101B400004460CB12046F8E70020F6E758060020CE
:101B500000B500F05DF800B900BD08480078FA282B
:101B600001DB012000E0002000B1F5E70348007828
:101B7000401C0249087000BFEEE70000280000206A
:101B800010B5002400F044F800B910BD00BFFFF705
:101B9000BFFF044600BFFFF753F928B900BF204636
:101BA000FFF7B0FF00BFF0E717480078401E164966
:101BB0000870FFF745F928B100BF2046FFF7A2FFE4
:101BC00000BFE2E7FFF746F928B100BF2046FFF764
:101BD00099FF00BFD9E7FFF711FC0C4908600846E0
:101BE0000068FFF741F928B100BF2046FFF78AFFE0
:101BF00000BFCAE7FFF756F800BF2046FFF782FF95
:101C000000BF00BFC1E70000280000203C0000200A
:101C100003480078012800D170470020FCE700004D
:101C20002A00002010B5002400BFFFF709F908B111
:101C3000012000E0002010B14FF4C87010BD00BFBB
:101C4000FFF7E6FF10B94FF4FA70F7E70B4800789A
:101C5000FA2802DB4FF41670F0E700BFFFF758FFD9
:101C6000044600BF05480078401C0449087000BFC6
:101C70002046FFF747FF00BF0020DFE729000020D4
:101C800010B5002400BFFFF7DBF808B1012000E029
:101C9000002010B14FF4C87010BD00BFFFF7B8FFAF
:101CA00010B94FF4FA70F7E7FFF7D4F810B940F223
:101CB000A560F1E700BFFFF72BFF044600BF074810
:101CC0000078401E0549087000BF2046FFF71AFF44
:101CD00000BFFFF7D5F80020DEE700002900002054
:101CE00010B5FFF795FF10B140F2F51010BDFFF7EA
:101CF00085FB064908600846006805490860012020
:101D000004490870FEF7D2FF0020EFE73C000020F6
:101D1000380000202A00002070B505460C462146F8
:101D200028462268FEF766FE70BD70B505460C4673
:101D3000224628466168FEF762FE70BDD0E90012B7
:101D40004A60116000BF704701460868884201D1AF
:101D5000012070470020FCE701460868884201D155
:101D6000012070470020FCE701460868884201D145
:101D7000012070470020FCE701460868884201D135
:101D8000012070470020FCE7006040607047006061
:101D9000406070470060406070472DE9F0410546A3
:101DA0000E46A6F108000421FEF70EFF044605F0DA
:101DB000030018B14FF44870BDE8F0810C2C02D339
:101DC000B4F1804F02D940F22130F5E76FF0030102
:101DD0002846FFF71DFA074621463846FEF733FF2F
:101DE0003846FEF721FF3846FEF728FF3846FEF753
:101DF000F0FE3846FEF7FDFE804600214046FEF725
:101E000022FF4046FEF725FF4046FEF712FF002066
:101E1000D2E7000070B505460C46002600BFFFF76C
:101E200077FE064600BF0748057014B106480460F7
:101E300002E064200449086000BF3046FFF762FEFC
:101E400000BF70BD58000020540000202DE9FC5F49
:101E500004468B4615461E460CAF97E880070020C7
:101E6000019000BFFEF7ECFF08B1012000E0002068
:101E700018B14FF4C870BDE8FC9F00BF00BF0CB99B
:101E8000012000E0002010B140F24C40F3E700BF19
:101E900000BF0DB9012000E0002010B140F24C401D
:101EA000E9E700BF00BFB8F1000F01D1012000E059
:101EB000002010B140F24C40DDE700BFB9F1400F07
:101EC00001D2012000E0002010B140F27370D2E78F
:101ED000092F05D12046FEF7A9FF08B9012000E02F
:101EE000002010B140F26E70C5E7092F01DD01201E
:101EF00000E0002010B140F26E70BCE72046FFF712
:101F0000C0FB4346194A31462846CDF80090FEF7FB
:101F1000D8FE2060A560E660C4F804B06774C4F819
:101F20001480C4F81890C4F84CA0BAF1000F03D183
:101F30000F480068206501E0C4F850A000BFFFF71B
:101F4000E7FD019000BF00BF0020207400BF2046C5
:101F5000FFF72EFA00BF0198FFF7D4FD00BFFFF78F
:101F600057FE08B1FEF78CFF002084E72916000811
:101F70005400002070B504460D46002600BFFEF751
:101F80005FFF08B1012000E0002010B14FF4C870DD
:101F900070BD00BFFEF75EFF10B140F2A460F7E72E
:101FA000002184EA01006940084301D1012000E0DA
:101FB000002018B100F0F4F80020E9E700BFFFF7B7
:101FC000A7FD064600BF22462B460C480068FFF7D7
:101FD000AFFB30B100BF3046FFF794FD00BF652076
:101FE000D6E706480068FFF791FA00BF3046FFF7D2
:101FF00089FD00BFFEF744FF0020C9E7380000203C
:1020000070B50446002500BFFEF71AFF08B1012095
:1020100000E0002010B14FF4C87070BD00BF0CB9D3
:10202000012000E0002008B1234804682046FEF7A4
:10203000FDFE10B140F26C70EFE72046FEF714FF92
:1020400028B1FEF707FF10B140F2A460E5E700BF3A
:10205000FFF75EFD054600BF04F13800FFF784FE80
:1020600010B92046FFF7FDFA2046FFF722FB10B11A
:102070002046FFF74BFA00BF207C00F0010010B1B2
:102080002046FFF779FB00BF207C00F0020010B172
:102090002046FFF7FDF82046FFF7F3FA00BF0820BF
:1020A000207400BF00BF2846FFF72CFD00BFFEF7DD
:1020B000E7FE0020B1E70000380000202DE9F041E4
:1020C00004460D46002700BF0CB9012000E00020A7
:1020D00018B140F24C40BDE8F08100BF00BFFEF7F0
:1020E000AFFE08B1012000E0002010B14FF4C8702D
:1020F000F1E700BF092D01DB012000E0002010B155
:1021000040F26E70E7E700BFFFF702FD074600BF31
:10211000607CA84208D100BF3846FFF7F3FC00BF3F
:10212000FEF7AEFE0020D6E704F13800FFF71CFEF4
:1021300040B92046FFF77DFA0646B54202DD84F835
:102140004050354600BF207C00F0020020B165748D
:102150002046FFF792F819E000BF207C00F0010054
:1021600008B1657412E02046FFF7A3FA70B120466B
:10217000FFF7CCF965742046FEF776FE18B12046CD
:10218000FFF7FCF802E02046FFF712F900BF3846DF
:10219000FFF7B8FC00BFFEF773FE00209BE70000CE
:1021A00010B50024FEF74CFE00B110BD00BFFFF7D4
:1021B000AFFC044600BF08480068FFF7A7F90648CF
:1021C0000068FFF7F5F800BF2046FFF79BFC00BF53
:1021D000FEF756FE00BFE8E73800002010B5FFF715
:1021E00017FD08B9012000E0002000B110BD01205A
:1021F0000021FFF761FBFFF73FFC03490968487CBA
:10220000FFF7B6F900BFF1E7380000202DE9F05FD5
:10221000044615461E460AAF97E8800DDDF8389053
:1022200000BF0CB9012000E0002018B140F24C4082
:10223000BDE8F09F00BF00BFBAF1000F01D101203F
:1022400000E0002010B140F24C40F1E700BFB9F1CE
:10225000020F09D1002187EA010088EA0101084341
:1022600002D140F63800E3E7B9F1010F08D10021AF
:1022700085EA01007140084302D140F63700D7E7F4
:10228000B9F1010F05D0B9F1020F02D040F63A00C2
:10229000CEE74FF0FF3185EA01007140084302D1DB
:1022A00040F63500C4E74FF0FF3187EA010088EAC5
:1022B0000101084302D140F63600B9E7012084F855
:1022C0002A00C4E90656002121616161C4E9087849
:1022D000A4F82890C4F800A0C4F804B004F10800E1
:1022E000FFF758FD0020A3E710B5044600BF0CB966
:1022F000012000E0002010B140F24C4010BD00BFB2
:1023000094F82A0010B940F63400F7E794F82A0050
:1023100002280BD12046FFF775FBD4E90601C4E97A
:1023200004012046FFF728FB0020E7E794F82A0085
:10233000012803D094F82A00032817D1022084F83A
:102340002A000023D4E9061059405840014304D123
:10235000D4E90801C4E9040103E0D4E90601C4E9B1
:1023600004012046FFF708FB0020C7E740F63900CC
:10237000C4E7000008060020500000009C2300086D
:10238000000000207C000000D60900081824000886
:102390007C000020F4460000E609000800A24A0480
:1023A0000000000000000000010203040607080905
:1023B00000000000010203040102030406070809EB
:1023C00002040608000000000000000000000000F9
:1023D000000000000000000000000000E803000012
:1023E00000000000000000004C0000204C00002015
:1023F000640000000100000000000000FFFFFFFF7C
:10240000FFFFFFFF68000020680000207000002030
:08241000700000200000000034
:0400000508000131BD
:00000001FF
