:020000040800F2
:10000000904B002045010008ED030008E5030008BF
:10001000E9030008C9020008870900080000000081
:10002000000000000000000000000000B50500080E
:10003000CD02000800000000B3010008A10600087E
:100040005F0100085F0100085F0100085F01000810
:100050005F0100085F0100085F0100085F01000800
:100060005F0100085F0100085F0100085F010008F0
:100070005F0100085F0100085F0100085F010008E0
:100080005F0100085F0100085F0100085F010008D0
:100090005F0100085F0100085F0100085F010008C0
:1000A0005F0100085F0100085F0100085F010008B0
:1000B0005F0100085F0100085F0100085F010008A0
:1000C0005F0100085F0100085F0100085F01000890
:1000D0005F010008190700085F0100085F010008C0
:1000E0005F0100085F0100085F0100085F01000870
:1000F0005F0100085F0100085F0100085F01000860
:100100005F0100085F0100085F0100085F0100084F
:100110005F0100085F0100085F0100085F0100083F
:100120005F0100085F0100085F0100085F0100082F
:10013000DFF80CD000F0B6F8004800477512000850
:10014000904B00200648804706480047FEE7FEE740
:10015000FEE7FEE7FEE7FEE7FEE7FEE7FEE7FEE777
:10016000B90600083101000872B6704762B67047E0
:10017000EFF3108072B6704780F310887047B0FAC2
:1001800080F0704717484FF0FF010170002080F3A6
:10019000098815484FF08051016062B6FEE71248A9
:1001A0004FF08051016070470F484FF0805101605F
:1001B000704772B6EFF3098028B1203880E8F00F5D
:1001C0000A4909680860094809490A680260106814
:1001D00090E8F00F203080F309884EF0040E62B6EC
:1001E000704700BF22ED00E004ED00E03800002081
:1001F0003C0000202DE9F05F0546002092469B461A
:1002000088460646814640241BE02846414647462C
:10021000224600F036F853465A46C01A914110D390
:1002200011461846224600F01DF82D1A67EB01080A
:100230004F4622460120002100F014F817EB000978
:100240004E41201EA4F10104DFDC484631462A4617
:100250004346BDE8F09F421C10F8011B0029FBD16A
:10026000801A7047202A04DB203A00FA02F10020AD
:1002700070479140C2F1200320FA03F319439040E4
:100280007047202A04DB203A21FA02F0002170474F
:1002900021FA02F3D040C2F12002914008431946EE
:1002A00070470000064C074D06E0E06840F001038F
:1002B00094E8070098471034AC42F6D3FFF73CFFB0
:1002C000E42A0008042B000800BFFEE770472DE970
:1002D000F0410246002500260020002300240027CC
:1002E00091F803C00CF00F0591F803C00CF0100C4E
:1002F000BCF1000F03D091F802C04CEA050591F85B
:1003000000C0BCF1000F31D0146800202BE04FF08A
:10031000010C0CFA00F3B1F800C00CEA03069E428F
:1003200020D183004FF00F0C0CFA03F7BC4305FA01
:1003300003FC4CEA040491F803C0BCF1280F06D179
:100340004FF0010C0CFA00FCC2F814C00AE091F85E
:1003500003C0BCF1480F05D14FF0010C0CFA00FCB2
:10036000C2F810C0401C0828D1D31460B1F800C0F6
:10037000BCF1FF0F34DD546800202EE000F1080CC2
:100380004FF0010808FA0CF3B1F800C00CEA0306BC
:100390009E4221D183004FF00F0C0CFA03F7BC43AF
:1003A00005FA03FC4CEA040491F803C0BCF1280FE1
:1003B00005D100F1080C08FA0CF8C2F8148091F885
:1003C00003C0BCF1480F07D100F1080C4FF0010841
:1003D00008FA0CF8C2F81080401C0828CED35460EC
:1003E000BDE8F08100BFFEE700BFFEE7704708B53B
:1003F0004FF4A06000F046F825208DF800000120A1
:100400008DF801008DF802008DF80300684600F0B9
:1004100001F808BD70B5002100230F22C47804B391
:10042000154C246804F4E064C4F5E064210AC1F1C9
:100430000403CA40447804FA03F184781440214349
:1004400009010E4C0678A155047804F01F0501241B
:10045000AC4005786D11AD0005F1E025C5F800410F
:1004600009E0047804F01F050124AC40044D06782F
:10047000761145F8264070BD0CED00E000E400E088
:1004800080E100E002490143024A11607047000028
:100490000000FA050CED00E010B5002807DA0A07A5
:1004A000140E054A00F00F031B1FD45403E00A0783
:1004B000130E024A135410BD18ED00E000E400E0F2
:1004C00029B1064A92690243044B9A6104E0034A47
:1004D00092698243014B9A6170470000001002400C
:1004E00030B500210022002400232D4D6D6805F059
:1004F0000C0121B1042905D0082923D105E0294D9B
:10050000056022E0274D05601FE0254D6D6805F46C
:100510007012234D6D6805F48034022505EB92427C
:100520001CB9214D554305600BE01D4D6D6805F468
:1005300000351DB11C4D5543056002E0194D554372
:10054000056002E0174D056000BF00BF144D6D68E7
:1005500005F0F0010909154D6B5C0568DD4045604B
:100560000F4D6D6805F4E061090A104D6B5C45683C
:10057000DD4085600A4D6D6805F46051C90A0B4D78
:100580006B5C4568DD40C560054D6D6805F4404114
:10059000890B074D6B5CC568B5FBF3F5056130BD94
:1005A0000010024000127A0000093D0014000020F3
:1005B00024000020704710B500F002F810BD0000C4
:1005C0000CB50020019000903348006840F4803062
:1005D0003149086000BF3048006800F400300090E6
:1005E0000198401C0190009818B90198B0F5A06FCF
:1005F000F1D12948006800F4003010B101200090CA
:1006000001E0002000900098012843D123480068B1
:1006100040F01000214908600846006820F00300FF
:1006200008600846006840F0020008601A48406808
:10063000194948600846406848600846406840F4E8
:10064000806048600846406820F47C104860084696
:10065000406840F4E81048600846006840F0807048
:10066000086000BF0C48006800F000700028F9D056
:100670000948406820F00300074948600846406880
:1006800040F00200486000BF0348406800F00C00E2
:100690000828F9D10CBD00000010024000200240E3
:1006A00010B501F0CFFD28B101F06CFD02F0FEF9AC
:1006B00001F080FD10BD000010B51348006840F047
:1006C00001001149086008464068104908400E4979
:1006D0004860084600680E4908400B490860084613
:1006E000006820F4802008600846406820F4FE007E
:1006F00048604FF41F008860FFF75DFF4FF0006017
:100700000449086010BD0000001002400000FFF81E
:10071000FFFFF6FE08ED00E010B540F22551064857
:1007200000F06DF838B1044800F024F9C4B2214655
:10073000014800F024F910BD0038014021B1828940
:1007400042F40052828104E082894DF6FF731A4020
:100750008281704700B585B001210420FFF7B0FE0B
:1007600001218803FFF7ACFE4FF40070ADF81000D4
:1007700018208DF8130003208DF8120004A91748E3
:10078000FFF7A5FD4FF48060ADF8100004208DF850
:10079000130004A91148FFF79AFD4FF4E1300090CF
:1007A0000020ADF80400ADF80600ADF80800ADF883
:1007B0000C000C20ADF80A006946094800F06EF8FC
:1007C000FFF715FE012240F22551054800F041F8DF
:1007D00001210348FFF7B2FF05B000BD000801404A
:1007E0000038014002460020B1F5007F00D100BF73
:1007F00013880B400BB1012000E00020704770B55A
:100800000246002400230025002040F66A16B1426B
:1008100000D100BFC1F3421501F01F03012606FA03
:1008200003F3012D02D19689334006E0022D02D157
:10083000168A334001E0968A33400C12012606FAEC
:1008400004F41688344013B10CB1012000E00020FC
:1008500070BDF0B50346002400260025002040F6B8
:100860006A17B94200D100BF1846C1F3421401F023
:100870001F06012707FA06F5012C01D10C3004E010
:10088000022C01D1103000E014301AB107682F4358
:10089000076002E00768AF430760F0BD2DE9F0474D
:1008A00086B005460E460024A24600BFA14600279A
:1008B000B08900B100BF2F462C8A4CF6FF7004406F
:1008C000F08804432C82AC894EF6F3100440B088C3
:1008D00031890843718908430443AC81AC8A4FF6DF
:1008E000FF400440B0890443AC8201A8FFF7F8FD43
:1008F0001F48874202D1DDF810A001E0DDF80CA00E
:10090000A88900F4004040B10AEBCA0000EB0A10CD
:1009100031684900B0FBF1F807E00AEBCA0000EBD0
:100920000A1031688900B0FBF1F86420B8FBF0F0E0
:1009300004012009642101FB1089A88900F400400A
:1009400040B1322000EBC900B0FBF1F000F007002D
:10095000044308E0322000EB09106421B0FBF1F001
:1009600000F00F0004432C8106B0BDE8F0870000C2
:100970000038014001468888C0F308007047C1F381
:1009800008028280704700BFFEE700000FB4054BED
:1009900010B503A9044A029800F04AF810BC5DF8AB
:1009A00014FB000005110008780000200FB4084B6C
:1009B00010B504A902AA039800F03AF8044602A967
:1009C000002000F095F9204610BC5DF814FB0000F3
:1009D000F10C000810B50446E143491C04EA01008B
:1009E00000F0A2FB401E10BD10B50446204600F0EA
:1009F0009BFB401E10BD02E008C8121F08C1002A60
:100A0000FAD170477047002001E001C1121F002A8F
:100A1000FBD17047506002604160086070475060D1
:100A200002604160086070474860016070470000E4
:100A30002DE9FF4F8DB09B460F460446002606E089
:100A400025280BD05A460F999047641C761C2078B5
:100A50000028F5D111B03046BDE8F08F0025A8463A
:100A60000122984900E0054314F8013F203B02FAB7
:100A700003F00842F7D120782E2817D114F8010F7F
:100A800045F004052A280ED06FF02F022078A0F13F
:100A9000300109290AD808EB880102EB410100EB7B
:100AA0000108641CF2E757F8048B641C20786C285A
:100AB0000DD004DC4C2812D06A2811D104E074282F
:100AC0000DD07A280CD10AE045F4001507E06178D2
:100AD00045F48015814202D1641C05F58015641C23
:100AE0002278692A45D008DC002AB3D0582A69D078
:100AF000632A10D0642A08D13BE0702A67D0732A99
:100B000013D0752A5CD0782A5CD010465A460F99CB
:100B10009047761CD3E017F8040B8DF800000020F6
:100B20008DF80100E946012003E057F8049B4FF0DF
:100B3000FF3069074FF0000501D40AE06D1C454500
:100B40000DDA8542FADB19F805100029F6D106E026
:100B50006D1C8542FCDB19F805100029F8D12E44E4
:100B600004E019F8010B5A460F9990476D1EF8D210
:100B7000A5E00A200021CDE90801C5F302500228B2
:100B80000DD001CFC117031E71F100030DDA4FF034
:100B9000000CD0EB0C006CEB01012D2308E0FF1DD5
:100BA00027F00707F7E80201EDE72B0504D52B2313
:100BB0008DF8283001233BE0EB0739D02023F7E7FD
:100BC0000A2000E010200021CDE9080107E01020F4
:100BD000002145F00405CDE908014FF00808C5F3F0
:100BE000025002280FD001CF00214FF0000A2B073E
:100BF0001FD5702A0DD0DDE908C38CF0100C5CEA1B
:100C0000030C0CD015E0FF1D27F00707F7E80201E1
:100C1000EBE740228DF828204FF0010A0BE050EA64
:100C2000010306D030238DF828308DF829200223C7
:100C30009A46582A04D024A20DF120090B9209E00B
:100C400026A2F9E7DDE90823FFF7D4FA0B9B9B5CAA
:100C500009F8013D50EA0102F4D1ADEB0900203062
:100C60000890680701D44FF001080899884502DD13
:100C7000A8EB010000E000208046002506E00AA85D
:100C80005A46405D0F9990476D1C761C5545F6DB22
:100C900004E030205A460F999047761CB8F10001C5
:100CA000A8F10108F5DC05E019F8010B5A460F9987
:100CB0009047761C0899481E08900029F4DC641CB3
:100CC000C5E60000092801003031323334353637AB
:100CD0003839616263646566000000003031323388
:100CE0003435363738394142434445460000000028
:100CF0000A68531C0B601070704770B504460E46AE
:100D000000250CB9002070BD3146204600F011F8D6
:100D10000546B5F1804F01D90020F4E70C2D01D92B
:100D20002846F0E70C20EEE70246481E1040101A55
:100D300070470246481E10444B1E9843704770B5DA
:100D400004460D46284600F023F9001D616808445A
:100D50006060204600F02EF8204670BD70B5054654
:100D60000C46284600F014F904F11001884201D322
:100D7000012070BD0020FCE70146A1F1080070478A
:100D80007CB50446204600F003F905466A4601A9F1
:100D900000F044FB2046DDE9002100F0CDF97CBDE8
:100DA0000146087900F0010070470146087900F01B
:100DB0000200704770B50446204600F063F805460F
:100DC0002C60284670BD7CB5044600200190009040
:100DD000002504B97CBD6A4601A9204600F03BFB12
:100DE0000198182804DA694601A800F081F8054640
:100DF00025B12846DDE9002100F02AFE2846E9E772
:100E000070B504462046FFF7D5FF0546284600F09A
:100E1000AAF8204600F0A2F870BD70B5044620463E
:100E200000F030F80546284600F0A2F8204600F011
:100E3000AAF870BD70B50446204600F023F80546B8
:100E40002846FFF7ADFF38B1284600F041F82946A3
:100E50002046FFF774FF0446204670BD70B5044677
:100E60002046FFF7A2FF58B1204600F02EF80546B5
:100E7000284600F02DF821462846FFF760FF04467B
:100E8000204670BD2DE9F0410446204600F080F870
:100E9000061F204600F0A0F80746314600F07EFB12
:100EA00005462846BDE8F08170B504460D460CB9EC
:100EB000002070BD2946204600F092F82046FFF73A
:100EC000ACFF204600F088F8F3E701460868704759
:100ED0007CB50446204600F05BF805466A4601A949
:100EE00000F09CFA2046DDE9002100F0B1FD7CBD58
:100EF0002DE9F04705460E462C683768164850F82D
:100F000024004FF0FF31B94000EA0109B9F1000FA8
:100F100016D1114814380069611C4FF0FF328A4025
:100F200000EA0208B8F1000F02D10020BDE8F08706
:100F30004046FFF74FFD04462C60074850F82490C8
:100F40004846FFF747FD074637600348603000EB2F
:100F5000C41050F82700E9E78C3A0020416841F0BE
:100F6000010141607047416841F0020141607047F2
:100F7000416821F0020141607047027902F00302EA
:100F80000A4342607047416821F0010141607047A7
:100F90000146486820F0030070472DE9F0410546FE
:100FA0000C46284600F018F88046211F00F0F6FA9B
:100FB00006462846FFF7ECFF211D471A3946304602
:100FC000FFF7DBFF21462846FFF7D7FF3046FFF744
:100FD00017FF3046BDE8F081014601F10800704777
:100FE00070B504460D4629462046FFF7B7FE68B1A6
:100FF00029462046FFF7D1FF06462046FFF7DAFED6
:101000003046FFF7B0FF3046FFF7BAFE70BD10B5AF
:10101000FFF7C5F810BD000010B507480CC8074819
:1010200000680021FFF7E6F80549086008460068F7
:1010300000F00EF810BD000040000020000000206D
:101040004800002010B5FFF7AFF810BDFFF79AF881
:1010500010B50446002000F07DFB204600F060FB48
:1010600010BDF0B50446059D581920F007004FF05B
:101070008077061F30463760061F30463460061FF3
:10108000304632604FF01237061F304637604FF05F
:101090000337061F304637604FF00237061F3046D1
:1010A00037607F10061F30463760061F30463160BC
:1010B0004FF01137061F304637604FF01037061FCC
:1010C000304637604FF00937061F304637604FF023
:1010D0000837061F304637604FF00737061F304687
:1010E00037604FF00637061F304637604FF0053740
:1010F000061F304637604FF00437061F3046376012
:10110000F0BD000070B504460D46E1B20548FFF79A
:1011100036FC00BF80210348FFF764FB0028F9D0AC
:10112000204670BD0038014010B50446204600F04E
:10113000FDFFC0F1200010BD30B5114C04EBC1140F
:1011400054F8223083600E4C743CC460D860743410
:1011500004EBC11444F82200094C743C25690124B5
:101160008C402543064C743C2561143454F82150BE
:10117000012494402C43024D603D45F8214030BD90
:10118000EC3A002000BF00BFFEE700001FB50020C2
:1011900008490968084A12680923CDE90032CDE9F7
:1011A00002100346054A06A1074801F0B7FA04B049
:1011B00010BD0000E02A0008DC2A000885110008A4
:1011C00069646C6500000000C00900200146034806
:1011D000814201D1012070470020FCE7C0090020B6
:1011E0000348007808B1012070470020FCE70000A8
:1011F000280000200348007808B101207047002033
:10120000FCE70000290000200146044800688142F4
:1012100001D1012070470020FCE7000038000020C9
:1012200010B50024FFF7DCFF00B110BDFFF7E2FFAF
:1012300000B1FAE700BF00F085FF044600BF00F0F0
:101240004DFB0B49086008460068FFF7DDFF28B139
:1012500000BF204600F070FF00BFE6E7FFF7D7FEB3
:1012600000BF204600F068FF00BF00BFDDE70000C0
:101270003C0000201FB5FFF76DFA25A0FFF786FBA5
:1012800000F064FF4FF4FA71002001F02BFA27A060
:10129000FFF77CFB2B4801F07FF904461CB1214687
:1012A00029A0FFF773FB35A0FFF770FB14204FF464
:1012B0008061364A0323CDE90032CDE902100023D4
:1012C000334A34A1354801F029FA04461CB12146BD
:1012D00033A0FFF75BFB3DA0FFF758FB14204FF452
:1012E00080613E4A0423CDE90032CDE9021000239B
:1012F0003B4A3CA13D4801F011FA04461CB121468D
:101300003BA0FFF743FB01F005F8002004B010BD3F
:1013100057656C636F6D6520746F2054656E6365EF
:101320006E744F532074696E790D0A0063726561A3
:10133000746520746573745F71756575655F3030B1
:101340000D0A00008000002054656E63656E744FC6
:10135000532043726561746520746573745F7175A1
:101360006575655F3030206661696C2120636F644C
:1013700065203A202564200D0A0000006372656133
:101380007465207461736B310D0A000068010020E0
:10139000FD1B00087461736B310000009800002091
:1013A00054656E63656E744F532043726561746556
:1013B000207461736B31206661696C2120636F64F6
:1013C00065203A202564200D0A00000063726561E3
:1013D0007465207461736B320D0A0000680500208B
:1013E000951C00087461736B32000000000100203E
:1013F00054656E63656E744F532043726561746506
:10140000207461736B32206661696C2120636F64A4
:1014100065203A202564200D0A0000002DE9F041E6
:1014200004460F469046802C06D200252046E11740
:1014300004EB91718E1009E02046FFF7D5FA0546BE
:10144000681F44FA00F080F02006AD1F3D60C8F828
:101450000060BDE8F0812DE9F04104460E461746D4
:10146000802C08D32046FFF7BFFA401F012101FA64
:1014700000F0451E2C443A4631462046FFF7CEFF89
:10148000BDE8F0810E4A13469A60DA6000221A61C4
:10149000002011E000230A4A143242F820300021D3
:1014A00007E0074B03F1740202EBC01242F821304F
:1014B000491C2029F5DB401C1828EBDB7047000095
:1014C000783A002070B504460D46FFF7DBFF294649
:1014D000204600F0B5FF70BD10B50024064800F0AE
:1014E00053FF08B1002010BD0348006804462046A1
:1014F00000F03EFF2046F6E77000002010B50446DD
:10150000204600F035FF0249204600F01FFF10BDC5
:101510007000002010B500240BE0074901EB041017
:1015200000F05AFF044901EB0410044900F00EFFDB
:10153000641C0A2CF1D310BDEC4600207000002082
:1015400070B50446256900BFD4E906104860016003
:1015500000BF00BF0020206195F840000A2808D095
:1015600095F84010284601F011FA0A2085F840004D
:1015700009E0687C217D884205D0217D284601F064
:1015800005FA0A20207570BD10B504462046FFF705
:10159000D7FF0421204600F0B0F810BD02465018D5
:1015A000704770B50446201D00F0F6FE08B100201B
:1015B00001E06068303805460DB1687C70BD0A20D6
:1015C000FCE710B50446201D00F0E6FE10BD70B526
:1015D00002460B461D1D286807E0A0F13006517C2D
:1015E000747CA14200DA02E00068A842F5D100BF95
:1015F00002F130014468416008604C60216000BF26
:1016000000BF536400BF117C41F00201117400BFA0
:1016100070BD10B5044604F1300000F0AFFE204666
:10162000616CFFF7D4FF10BD10B5044604F1300023
:1016300000F0A4FE0020606400BF207C20F00200C7
:10164000207400BF10BD70B504460D462580201DD6
:1016500000F0C5FE70BD0146012901D10020704790
:10166000022902D140F24360F9E7032902D140F296
:101670004460F4E7042902D140F24560EFE740F20C
:101680004260ECE72DE9F04106460F4614461D4640
:10169000304600F0ABF939463046FFF798FF4FF07F
:1016A000FF3184EA01006940084304D022462B46FA
:1016B000304600F057FBBDE8F08170B504460D469A
:1016C00000BF207C00F0020020B184F84850204682
:1016D000FFF7AAFF00BF207C00F0010010B12046F8
:1016E00000F064FB00BF207C00F0040000B170BD7E
:1016F000204600F0A1F800BFF9E72DE9F0410546CA
:101700000F466C68266806E0A4F130003946FFF702
:10171000D4FF34462668281D8442F5D1BDE8F08107
:1017200070B504462546B5F1807F00D311E025F061
:101730007F40401E4FF0E02148610F214FF0FF3005
:10174000FEF7AAFE00204FF0E02188610720086123
:1017500000BF70BD10B5044621464FF0FF30FEF7C4
:101760009BFE10BD2DE9F04704460F469146984672
:101770004FF0000A00BF0CB9012000E0002018B1B2
:1017800040F24C40BDE8F08700BF00BF0FB9012018
:1017900000E0002010B140F24C40F3E700BF00BF72
:1017A00000F0D0FC824600BF2046FFF70AFFB0B130
:1017B00002234A46394604F10C0000F0BAFE38B163
:1017C00000BF504600F0B8FC00BF40F2DD50D9E742
:1017D00000BF504600F0B0FC00BF0020D2E7B8F1D7
:1017E000000F07D16168A1F130004A46394600F088
:1017F00018F80DE065682E6807E0A5F130004A464C
:10180000394600F00EF835462E68201D8542F4D189
:1018100000BF504600F090FC00BFFFF701FD002024
:10182000B0E770B504460E4615466665A56501210C
:101830002046FFF742FF70BD10B50446607C0649A4
:101840000968497C884203D1204600F021F802E073
:10185000204600F003F810BD380000202DE9F041CB
:1018600005466E7C094800EBC604204600F09CFD4E
:1018700010B1304600F09CF805F13007214638469B
:101880002268FFF7CCF800BFBDE8F08168090020AE
:1018900070B50446657C084800EBC506304600F08C
:1018A00083FD10B1284600F083F8314604F1300082
:1018B00000F055FD70BD00006809002070B50446B9
:1018C000054800EBC405284600F06EFD08B1002075
:1018D00070BD28683038FBE768090020044890F89C
:1018E0005400034A02EBC00108683038704700001A
:1018F000680900200A210E4A82F854100021084687
:1019000008E00B4A02EBC0010960496000BF411CBE
:10191000C9B208460A28F4D3002006E00022044990
:10192000503141F82020411CC8B20028F6D0704741
:10193000680900200146064800EBC1021068A0F1CA
:101940003003186B904201D1012070470020FCE762
:101950006809002070B506460A4800EBC60528460F
:1019600000F022FD60B92C6800BFD4E90010FFF739
:101970005BF800BF2946204600F0F1FC00BF00BF25
:1019800070BD00006809002070B50025074C03E019
:1019900005F12000C5B2241D20680028F8D0206879
:1019A00000F0C4FB2844C5B2284670BDB809002029
:1019B00000BF42110C4951F8221000F01F02C2F181
:1019C0001F0301229A4011434311074A42F8231092
:1019D00000BFA2F1500191F85410814203DDA2F141
:1019E000500181F854007047B809002070B50546D1
:1019F0006C7C164800EBC40600BFD5E90C10FFF75D
:101A000013F800BF304600F0CFFC98B100BF611161
:101A10000E48503050F8210004F01F01C1F11F02A0
:101A200001219140884362110849503141F8220058
:101A300000BF00BF054890F85400A04204D1FFF752
:101A4000A3FF024981F8540070BD0000680900201E
:101A500070B5C4688368DC60A360134D05EBC115E5
:101A600055F8225085421ED10F4D05EBC11545F8A2
:101A700022300D4D743DAB4215D1143555F821601F
:101A800001259540AE43084D603D45F8216055F86D
:101A9000215045B9044D743D2D6901268E40B54352
:101AA000014E743E356170BDEC3A002070B50546BC
:101AB00000262948007800B170BD00BF00F042FB4D
:101AC000064600BF2846FFF7F9FE04461CB1204633
:101AD000FFF77CFB28B100BF304600F02DFB00BFB4
:101AE000EAE72846FFF726FF28B100BF304600F09E
:101AF00023FB00BFE0E7FFF77DFB28B100BF3046C6
:101B000000F01AFB00BFD7E7206D10B1206D401E1A
:101B10002065206D28B100BF304600F00DFB00BFEE
:101B2000CAE70E490968487CFFF714FF2846FFF70B
:101B3000C5FE0446E06C18B909480068206501E05C
:101B4000E06C206500BF304600F0F6FA00BFFFF7FA
:101B500067FB00BFB0E700005800002038000020FD
:101B60005400002010B5002000F0B2FE10BD2DE999
:101B7000F04105464FF00A08AE6B09E0A6F11807E0
:101B80003846FFF70EFD0446444500DAA0463668A5
:101B900005F138008642F1D14046BDE8F08170B5CC
:101BA0000546AC6B266805E0A4F11800FFF7ECFCD5
:101BB0003446266805F138008442F5D170BD10B571
:101BC000044604F1280000F00DFC04F1300000F0A0
:101BD00009FC04F1380000F005FC0A2084F84000FC
:101BE000002084F8480060646065A06510BD01466F
:101BF000087C08B9012070470020FCE71FB521E0F0
:101C000011A0FEF7C3FE4FF0FF31009102AA01912F
:101C100003A9114800F0D8FC04463CB90FA0DDE947
:101C20000221FEF7B3FE039800F0F2FB40F244609D
:101C3000844207D112A0FEF7A9FE6FF00100411007
:101C400000F000FEDCE700007175657565207065C9
:101C50006E640D0A0000000080000020717565753B
:101C6000652070656E64206461746120697320254D
:101C7000732C73697A652069732025640D0A00004E
:101C800071756575652069732064657374726F7909
:101C90000D0A0000002516A0FEF778FE26E0802041
:101CA00000F0A3FB054645B915A0FEF76FFE6FF0E7
:101CB0000100411000F0C6FD13E02A4615A1284698
:101CC000FEF774FE2846FEF7C6FA06463246294657
:101CD0001B4800F0FBFC04461CB1214619A0FEF78E
:101CE00055FE4FF47A70002100F0ACFDD7E70000FC
:101CF0007461736B322072756E6E696E670D0A00C7
:101D00006D6D626C6B20616C6C6F63206661696CD9
:101D1000210D0A00746869732069732061206D6D5C
:101D2000626C6B20746573742C206D6D626C6B201B
:101D300061646472206973202523780D0A00000015
:101D400080000020717565756520706F7374206662
:101D500061696C2120636F6465203A202564200D41
:101D60000A00000070B5064614461D46002184EAAC
:101D700001006940084301D1642070BD4FF0FF317C
:101D800084EA01006940084301D16520F5E7C6E90E
:101D9000084522462B46304600F014F800BF307C40
:101DA00040F00100307400BF0020E6E710B50446A3
:101DB000204600F059F800BF207C20F0010020747C
:101DC00000BF10BD2DE9FF5F81464FF0000BDA46E2
:101DD00000210F46884600BF00F0B4F9834600BFDB
:101DE000DDE90201C9E908011E4804680FE0A4F119
:101DF000280ADAE90810CD1940EB0806D9E90810DD
:101E0000491BB04100D205E02F46B0462468154872
:101E10008442ECD100BFD9E90810C91B60EB08006F
:101E2000C9E908100F4884420BD0BAF1000F08D05E
:101E3000DAE90830D9E90812591A60EB0200CAE958
:101E4000081009F128006168606004604160086062
:101E500000BF00BF00BF584600F06EF900BFBDE8EC
:101E6000FF9F00004C00002070B50446002600BF14
:101E700000F068F9064600BF04F1280000F0A4FA5B
:101E800008B1002001E0A06A28380546F5B11649DE
:101E9000A06A88421AD06FF001014810D4E90823E3
:101EA0008A1A60EB0300D5E90813511A984108D348
:101EB000D5E90820D4E90831D2184841C5E90820FD
:101EC00004E06FF001014810C5E9081000BFD4E933
:101ED0000A104860016000BF00BF00BF304600F03C
:101EE0002BF900BF70BD00004C0000202DE9F04729
:101EF00004460D464FF0000A00BF00F023F9824669
:101F000000BF2748D0E9001009196841244AC2E9F6
:101F10000010244800F058FA30B100BF504600F0DD
:101F20000BF900BFBDE8F0871E480068A0F1280645
:101F3000D6E90801201A75EB010003D300213162B4
:101F400071620CE0D6E90810091B60EB0500C6E9D8
:101F5000081000BF504600F0EFF800BFE2E711485C
:101F60000768D7F8009010E0A7F128080023D8E907
:101F7000081059405840014300D009E00221404672
:101F8000FFF79BFB4F46D7F8009006488742EBD1FE
:101F900000BF00BF504600F0CFF800BF00BFC1E750
:101FA000300000204C000020002070472DE9F04157
:101FB00005460026002700BF00F0C4F8064600BF13
:101FC0001B49D5E90420D1E90031D2184841C5E9BF
:101FD0000420184884680AE0A4F10807D5E9043011
:101FE000D7E90412591A904100D204E0246811483C
:101FF00008308442F0D100BF05F1080061686060DC
:1020000004604160086000BF00BF0A48816805F1B4
:102010000800814204D1074AD5E90410C2E9001042
:1020200000BF304600F088F800BFBDE8F081000036
:1020300030000020600000202DE9F0410446002718
:1020400000BF00F07FF8074600BF17488068A0F186
:10205000080500BFD4E902104860016000BF00BF5E
:10206000A54219D104F108000168814201D1012182
:1020700000E0002109B1002001E0A0680838064610
:102080002EB94FF0FF31084A1160516004E0064A52
:10209000D6E90410C2E9001000BF384600F04CF841
:1020A00000BFBDE8F08100006000002070B51D4851
:1020B000D0E900201C49D1E90031D21A884100D270
:1020C00070BD00F0C9F8174885682E6820E0A5F1BA
:1020D00008041548D4E90412D0E90030591A904197
:1020E00000D219E02046FFF7A7FF208D022807D174
:1020F000D4E90801C4E904012046FFF757FF02E0D4
:10210000032084F82A00D4E90010884735462E6859
:10211000044808308542DAD100BF00F0CBF800BF98
:10212000CEE70000600000203000002010B504461B
:102130002046FEF724F810BD10B504462046FEF7F1
:102140001BF810BD10B5FEF713F810BD10B5FEF763
:1021500063FFFFF7CFFB4FF440510948FFF7B2F997
:10216000FFF7D8F9FFF712F804460CB1204610BD6E
:10217000FFF71AFF04460CB12046F8E70020F6E707
:10218000780A002000B500F05DF800B900BD0848ED
:102190000078FA2801DB012000E0002000B1F5E71B
:1021A00003480078401C0249087000BFEEE70000B9
:1021B0002800002010B5002400F044F800B910BD3C
:1021C00000BFFFF7BFFF044600BFFFF709F828B9BB
:1021D00000BF2046FFF7B0FF00BFF0E717480078C8
:1021E000401E16490870FEF7FBFF28B100BF2046CD
:1021F000FFF7A2FF00BFE2E7FEF7FCFF28B100BF38
:102200002046FFF799FF00BFD9E7FFF767FB0C49AE
:10221000086008460068FEF7F7FF28B100BF2046B7
:10222000FFF78AFF00BFCAE7FEF70CFF00BF20469A
:10223000FFF782FF00BF00BFC1E7000028000020B9
:102240003C00002003480078012800D1704700209E
:10225000FCE700002A00002010B5002400BFFEF7B4
:10226000BFFF08B1012000E0002010B14FF4C8709A
:1022700010BD00BFFFF7E6FF10B94FF4FA70F7E7A3
:102280000B480078FA2802DB4FF41670F0E700BF25
:10229000FFF758FF044600BF05480078401C04497A
:1022A000087000BF2046FFF747FF00BF0020DFE7B0
:1022B0002900002010B5002400BFFEF791FF08B1EF
:1022C000012000E0002010B14FF4C87010BD00BF25
:1022D000FFF7B8FF10B94FF4FA70F7E7FEF78AFF7F
:1022E00010B940F2A560F1E700BFFFF72BFF0446ED
:1022F00000BF07480078401E0549087000BF20460F
:10230000FFF71AFF00BFFEF78BFF0020DEE700009B
:102310002900002010B5FFF795FF10B140F2F5102D
:1023200010BDFFF7DBFA064908600846006805495A
:102330000860012004490870FEF788FE0020EFE7DE
:102340003C000020380000202A00002070B505461F
:102350000C46214628462268FEF75CFB70BD70B52E
:1023600005460C46224628466168FEF758FB70BDBC
:10237000D0E900124A60116000BF7047D0E9001236
:102380004A60116000BF704701460868884201D169
:10239000012070470020FCE701460868884201D10F
:1023A000012070470020FCE701460868884201D1FF
:1023B000012070470020FCE701460868884201D1EF
:1023C000012070470020FCE701460868884201D1DF
:1023D000012070470020FCE700604060704700600B
:1023E0004060704700604060704770B5054604214A
:1023F0002846FEF782FC06463046FEF7E4FC04461B
:102400000CB9002070BD31462046FEF74DFDF9E7BE
:1024100070B5044604B970BD2046FEF7ADFC054614
:102420002846FEF7EDFC2846FEF718FD054628462F
:10243000FEF700FD05462846FEF7A2FC00BFEAE7CE
:102440002DE9F04105460E46A6F108000421FEF7ED
:102450006BFC044605F0030018B14FF44870BDE86A
:10246000F0810C2C02D3B4F1804F02D940F221301C
:10247000F5E76FF003012846FFF790F8074621467D
:102480003846FEF77AFD3846FEF768FD3846FEF717
:102490006FFD3846FEF774FC3846FEF78BFC80462D
:1024A00000214046FEF769FD4046FEF76CFD4046C0
:1024B000FEF759FD0020D2E710B5044600BF0CB965
:1024C000012000E0002010B140F24C4010BD00BFE0
:1024D0002046FFF781FF0020F8E72DE9F04105468F
:1024E0000E4617464FF0000800BFFFF72BFE804650
:1024F00000BF2846FFF748FF08B1002000E0286829
:10250000044644B900BF4046FFF716FE00BF40F244
:102510008530BDE8F081A0683060E0683860204612
:10252000FEF7ECFF00BF4046FFF706FE00BF0020AD
:10253000EFE72DE9F04705460E46174698464FF05F
:10254000000900BFFFF7FEFD814600BFFEF7C4FF94
:10255000044644B900BF4846FFF7EEFD00BF4FF404
:102560006170BDE8F087A660E76008F0010020B167
:1025700029462046FFF7EAFE07E000BF2A4620462C
:102580006968FEF747FA00BF00BF00BF4846FFF783
:10259000D3FD00BF0020E4E710B5044600BF0CB92E
:1025A000012000E0002010B140F24C4010BD00BFFF
:1025B00044F6EE312046FFF746F804F10C00FFF731
:1025C0007BFF0020F2E700002DE9F04704460D46AE
:1025D0001646DDE908784FF0000A00BF0CB901206B
:1025E00000E0002018B140F24C40BDE8F08700BF89
:1025F00000BF0DB9012000E0002010B140F24C40B6
:10260000F3E700BF00BF0EB9012000E0002010B1C9
:1026100040F24C40E9E700BF00BFFFF793FD824660
:1026200000BF3246294604F10C00FFF756FF30B9CF
:1026300000BF5046FFF780FD00BF0020D5E7002116
:1026400087EA010088EA0101084309D12860306067
:1026500000BF5046FFF770FD00BF4FF4C860C4E7ED
:10266000FEF7C8FD38B100BF5046FFF765FD00BF5B
:1026700040F24160B9E73A464346214612480068B5
:10268000FFF700F800BF5046FFF756FD00BFFEF70A
:10269000C7FD0D49096891F84800FEF7DCFF814647
:1026A000B9F1000F0ED108480068406D2860064857
:1026B0000068806D30600020034909684865024960
:1026C00009688865484690E73800002070B50446E0
:1026D0000D4616460023324629462046FFF742F8AB
:1026E00070BD000070B505460C46002600BFFFF720
:1026F00029FD064600BF0748057014B1064804606E
:1027000002E064200449086000BF3046FFF714FD72
:1027100000BF70BD58000020540000202DE9FC5F70
:1027200004468B4615461E460CAF97E880070020EE
:10273000019000BFFEF754FD08B1012000E0002029
:1027400018B14FF4C870BDE8FC9F00BF00BF0CB9C2
:10275000012000E0002010B140F24C40F3E700BF40
:1027600000BF0DB9012000E0002010B140F24C4044
:10277000E9E700BF00BFB8F1000F01D1012000E080
:10278000002010B140F24C40DDE700BFB9F1400F2E
:1027900001D2012000E0002010B140F27370D2E7B6
:1027A000092F05D12046FEF711FD08B9012000E0F0
:1027B000002010B140F26E70C5E7092F01DD012045
:1027C00000E0002010B140F26E70BCE72046FFF739
:1027D000F6F94346194A31462846CDF80090FEF7EF
:1027E00040FC2060A560E660C4F804B06774C4F8DB
:1027F0001480C4F81890C4F84CA0BAF1000F03D1AB
:102800000F480068206501E0C4F850A000BFFFF742
:1028100099FC019000BF00BF0020207400BF20463B
:10282000FFF736F800BF0198FFF786FC00BFFFF7FF
:1028300009FD08B1FEF7F4FC002084E7651B0008E1
:102840005400002070B504460D46002600BFFEF778
:10285000C7FC08B1012000E0002010B14FF4C8709F
:1028600070BD00BFFEF7C6FC10B140F2A460F7E7F0
:10287000002184EA01006940084301D1012000E001
:10288000002018B100F0F4F80020E9E700BFFFF7DE
:1028900059FC064600BF22462B460C480068FFF74D
:1028A00061FA30B100BF3046FFF746FC00BF65203B
:1028B000D6E706480068FFF799F800BF3046FFF7F3
:1028C0003BFC00BFFEF7ACFC0020C9E7380000204D
:1028D00070B50446002500BFFEF782FC08B1012058
:1028E00000E0002010B14FF4C87070BD00BF0CB9FB
:1028F000012000E0002008B1234804682046FEF7CC
:1029000065FC10B140F26C70EFE72046FEF77CFCEE
:1029100028B1FEF76FFC10B140F2A460E5E700BFFC
:10292000FFF710FC054600BF04F13800FFF744FD37
:1029300010B92046FFF733F92046FFF758F910B1D8
:102940002046FFF753F800BF207C00F0010010B1D3
:102950002046FFF72BFA00BF207C00F0020010B1E8
:102960002046FEF761FE2046FFF729F900BF082048
:10297000207400BF00BF2846FFF7DEFB00BFFEF754
:102980004FFC0020B1E70000380000202DE9F041A5
:1029900004460D46002700BF0CB9012000E00020CE
:1029A00018B140F24C40BDE8F08100BF00BFFEF717
:1029B00017FC08B1012000E0002010B14FF4C870EE
:1029C000F1E700BF092D01DB012000E0002010B17C
:1029D00040F26E70E7E700BFFFF7B4FB074600BFA9
:1029E000607CA84208D100BF3846FFF7A5FB00BFB6
:1029F000FEF716FC0020D6E704F13800FFF7DCFCF8
:102A000040B92046FFF7B3F80646B54202DD84F828
:102A10004050354600BF207C00F0020020B16574B4
:102A20002046FEF7F6FD19E000BF207C00F0010013
:102A300008B1657412E02046FFF7D9F870B120465E
:102A4000FEF7D4FF65742046FEF7DEFB18B1204682
:102A5000FEF704FF02E02046FEF71AFF00BF3846EB
:102A6000FFF76AFB00BFFEF7DBFB00209BE70000DF
:102A700010B50024FEF7B4FB00B110BD00BFFFF796
:102A800061FB044600BF08480068FEF7AFFF064838
:102A90000068FEF7FDFE00BF2046FFF74DFB00BFBC
:102AA000FEF7BEFB00BFE8E73800002010B5FFF7D7
:102AB000C9FB08B9012000E0002000B110BD0120D1
:102AC0000021FFF713FAFFF7F1FA03490968487C80
:102AD000FEF7ECFF00BFF1E738000020280A0020D5
:102AE00050000000042B0008000000207C000000C3
:102AF000F6090008802B00087C000020144B000021
:102B0000060A000800A24A040000000000000000BD
:102B10000102030406070809000000000102030483
:102B20000102030406070809020406080000000069
:102B30000000000000000000000000000000000095
:102B400000000000E803000000000000000000009A
:102B50004C0000204C000020640000000100000038
:102B600000000000FFFFFFFFFFFFFFFF68000020E5
:102B700068000020700000207000002000000000AD
:0400000508000131BD
:00000001FF
