:020000040800F2
:10000000784B00204501000809040008010400089D
:1000100005040008E5020008A3090008000000002C
:10002000000000000000000000000000D1050008F2
:10003000E902000800000000B3010008BD06000846
:100040005F0100085F0100085F0100085F01000810
:100050005F0100085F0100085F0100085F01000800
:100060005F0100085F0100085F0100085F010008F0
:100070005F0100085F0100085F0100085F010008E0
:100080005F0100085F0100085F0100085F010008D0
:100090005F0100085F0100085F0100085F010008C0
:1000A0005F0100085F0100085F0100085F010008B0
:1000B0005F0100085F0100085F0100085F010008A0
:1000C0005F0100085F0100085F0100085F01000890
:1000D0005F010008350700085F0100085F010008A4
:1000E0005F0100085F0100085F0100085F01000870
:1000F0005F0100085F0100085F0100085F01000860
:100100005F0100085F0100085F0100085F0100084F
:100110005F0100085F0100085F0100085F0100083F
:100120005F0100085F0100085F0100085F0100082F
:10013000DFF80CD000F0C4F800480047D50E0008E6
:10014000784B00200648804706480047FEE7FEE758
:10015000FEE7FEE7FEE7FEE7FEE7FEE7FEE7FEE777
:10016000D50600083101000872B6704762B67047C4
:10017000EFF3108072B6704780F310887047B0FAC2
:1001800080F0704717484FF0FF010170002080F3A6
:10019000098815484FF08051016062B6FEE71248A9
:1001A0004FF08051016070470F484FF0805101605F
:1001B000704772B6EFF3098028B1203880E8F00F5D
:1001C0000A4909680860094809490A680260106814
:1001D00090E8F00F203080F309884EF0040E62B6EC
:1001E000704700BF22ED00E004ED00E03800002081
:1001F0003C0000202DE9F05F0546002092469B461A
:1002000088460646814640241BE02846414647462C
:10021000224600F045F853465A46C01A914110D381
:1002200011461846224600F02CF82D1A67EB0108FB
:100230004F4622460120002100F023F817EB000969
:100240004E41201EA4F10104DFDC484631462A4617
:100250004346BDE8F09F30B50B4601460020202202
:10026000012409E021FA02F59D4205D303FA02F5C3
:10027000491B04FA02F52844151EA2F10102F1DC23
:1002800030BD202A04DB203A00FA02F1002070473A
:100290009140C2F1200320FA03F3194390407047C4
:1002A000202A04DB203A21FA02F00021704721FACB
:1002B00002F3D040C2F12002914008431946704732
:1002C000064C074D06E0E06840F0010394E80700A3
:1002D00098471034AC42F6D3FFF72EFF00230008F6
:1002E0002023000800BFFEE770472DE9F0410246D9
:1002F00000250026002000230024002791F803C0D9
:100300000CF00F0591F803C00CF0100CBCF1000FBD
:1003100003D091F802C04CEA050591F800C0BCF189
:10032000000F31D0146800202BE04FF0010C0CFAC4
:1003300000F3B1F800C00CEA03069E4220D183000E
:100340004FF00F0C0CFA03F7BC4305FA03FC4CEA20
:10035000040491F803C0BCF1280F06D14FF0010C42
:100360000CFA00FCC2F814C00AE091F803C0BCF11A
:10037000480F05D14FF0010C0CFA00FCC2F810C078
:10038000401C0828D1D31460B1F800C0BCF1FF0FA5
:1003900034DD546800202EE000F1080C4FF0010815
:1003A00008FA0CF3B1F800C00CEA03069E4221D112
:1003B00083004FF00F0C0CFA03F7BC4305FA03FC63
:1003C0004CEA040491F803C0BCF1280F05D100F1F8
:1003D000080C08FA0CF8C2F8148091F803C0BCF1BC
:1003E000480F07D100F1080C4FF0010808FA0CF88B
:1003F000C2F81080401C0828CED35460BDE8F081BC
:1004000000BFFEE700BFFEE7704708B54FF4A060ED
:1004100000F046F825208DF8000001208DF801003D
:100420008DF802008DF80300684600F001F808BD61
:1004300070B5002100230F22C47804B3154C246842
:1004400004F4E064C4F5E064210AC1F10403CA4085
:10045000447804FA03F184781440214309010E4CD6
:100460000678A155047804F01F050124AC400578F6
:100470006D11AD0005F1E025C5F8004109E00478F3
:1004800004F01F050124AC40044D0678761145F8B0
:10049000264070BD0CED00E000E400E080E100E0EB
:1004A00002490143024A1160704700000000FA054A
:1004B0000CED00E010B5002807DA0A07140E054A13
:1004C00000F00F031B1FD45403E00A07130E024A67
:1004D000135410BD18ED00E000E400E029B1064A15
:1004E00092690243044B9A6104E0034A9269824391
:1004F000014B9A61704700000010024030B50021A6
:100500000022002400232D4D6D6805F00C0121B15F
:10051000042905D0082923D105E0294D056022E0F2
:10052000274D05601FE0254D6D6805F47012234DC1
:100530006D6805F48034022505EB92421CB9214D0B
:10054000554305600BE01D4D6D6805F400351DB188
:100550001C4D5543056002E0194D5543056002E00E
:10056000174D056000BF00BF144D6D6805F0F00128
:100570000909154D6B5C0568DD4045600F4D6D68E0
:1005800005F4E061090A104D6B5C4568DD4085604B
:100590000A4D6D6805F46051C90A0B4D6B5C4568E6
:1005A000DD40C560054D6D6805F44041890B074D80
:1005B0006B5CC568B5FBF3F5056130BD001002400A
:1005C00000127A0000093D001400002024000020E1
:1005D000704710B500F002F810BD00000CB5002007
:1005E000019000903348006840F480303149086041
:1005F00000BF3048006800F4003000900198401CB3
:100600000190009818B90198B0F5A06FF1D1294870
:10061000006800F4003010B10120009001E00020DB
:1006200000900098012843D12348006840F0100052
:10063000214908600846006820F003000860084669
:10064000006840F0020008601A4840681949486094
:100650000846406848600846406840F4806048604A
:100660000846406820F47C1048600846406840F422
:10067000E81048600846006840F08070086000BFDD
:100680000C48006800F000700028F9D00948406864
:1006900020F00300074948600846406840F0020027
:1006A000486000BF0348406800F00C000828F9D1FA
:1006B0000CBD0000001002400020024010B501F007
:1006C000A5FA28B101F042FA01F0FEFD01F056FA58
:1006D00010BD000010B51348006840F0010011493A
:1006E000086008464068104908400E4948600846BE
:1006F00000680E4908400B4908600846006820F46D
:10070000802008600846406820F4FE0048604FF4EE
:100710001F008860FFF75DFF4FF00060044908602C
:1007200010BD0000001002400000FFF8FFFFF6FEC1
:1007300008ED00E010B540F22551064800F06DF8D4
:1007400038B1044800F024F9C4B22146014800F051
:1007500024F910BD0038014021B1828942F40052D1
:10076000828104E082894DF6FF731A4082817047CE
:1007700000B585B001210420FFF7B0FE01218803F8
:10078000FFF7ACFE4FF40070ADF8100018208DF8A4
:10079000130003208DF8120004A91748FFF7A5FDE8
:1007A0004FF48060ADF8100004208DF8130004A908
:1007B0001148FFF79AFD4FF4E13000900020ADF8AA
:1007C0000400ADF80600ADF80800ADF80C000C20F0
:1007D000ADF80A006946094800F06EF8FFF715FE0B
:1007E000012240F22551054800F041F8012103485B
:1007F000FFF7B2FF05B000BD00080140003801401E
:1008000002460020B1F5007F00D100BF13880B40E5
:100810000BB1012000E00020704770B502460024B3
:1008200000230025002040F66A16B14200D100BF27
:10083000C1F3421501F01F03012606FA03F3012D4F
:1008400002D19689334006E0022D02D1168A334048
:1008500001E0968A33400C12012606FA04F4168849
:10086000344013B10CB1012000E0002070BDF0B5A0
:100870000346002400260025002040F66A17B942EE
:1008800000D100BF1846C1F3421401F01F06012732
:1008900007FA06F5012C01D10C3004E0022C01D13D
:1008A000103000E014301AB107682F43076002E0EF
:1008B0000768AF430760F0BD2DE9F04786B00546F5
:1008C0000E460024A24600BFA1460027B08900B111
:1008D00000BF2F462C8A4CF6FF700440F08804437A
:1008E0002C82AC894EF6F3100440B088318908435D
:1008F000718908430443AC81AC8A4FF6FF40044041
:10090000B0890443AC8201A8FFF7F8FD1F48874275
:1009100002D1DDF810A001E0DDF80CA0A88900F4F8
:10092000004040B10AEBCA0000EB0A1031684900F0
:10093000B0FBF1F807E00AEBCA0000EB0A103168DF
:100940008900B0FBF1F86420B8FBF0F00401200945
:10095000642101FB1089A88900F4004040B13220D5
:1009600000EBC900B0FBF1F000F00700044308E021
:10097000322000EB09106421B0FBF1F000F00F0011
:1009800004432C8106B0BDE8F08700000038014028
:1009900001468888C0F308007047C1F308028280CE
:1009A000704700BFFEE700000FB4054B10B503A968
:1009B000044A029800F02CF810BC5DF814FB00000B
:1009C000650D00087800002010B50446204600F0B0
:1009D000DBF9401E10BD02E008C8121F08C1002A42
:1009E000FAD170477047002001E001C1121F002AB0
:1009F000FBD17047506002604160086070475060F2
:100A00000260416008607047486001607047000004
:100A10002DE9FF4F8BB09A460F460546002606E0AB
:100A200025280BD052460D9990476D1C761C2878CE
:100A30000028F5D10FB03046BDE8F08F0024A04665
:100A40000122604900E0044315F8013F203B02FA0F
:100A500003F00842F7D128782E2817D115F8010F96
:100A600044F004042A280ED06FF02F022878A0F159
:100A7000300109290AD808EB880102EB410100EB9B
:100A800001086D1CF2E757F8048B6D1C2878692863
:100A90003ED006DC0028CDD063280BD0642804D1DA
:100AA00036E0732810D075284BD052460D999047E8
:100AB000761C85E017F8040B8DF8000000208DF8F7
:100AC0000100E946012003E057F8049B4FF0FF3096
:100AD00061074FF0000401D40AE0641C44450DDABC
:100AE0008442FADB19F804100029F6D106E0641CF0
:100AF0008442FCDB19F804100029F8D1264404E0F4
:100B000019F8010B52460D999047641EF8D257E030
:100B100001CF4FF00A0B002802DA40422D2102E0FB
:100B2000210504D52B218DF82410012103E0E107D4
:100B300005D02021F7E70DF1200908910CE00021F4
:100B4000F9E701CF4FF00A0BF9E75946FFF783FBAE
:100B500001F1300209F8012D0028F6D1ADEB0900B2
:100B600000F1200B600701D44FF00108D84502DDE9
:100B7000A8EB0B0000E000208046002406E009A856
:100B80005246005D0D999047641C761C089884427B
:100B9000F5DB04E0302052460D999047761CB8F101
:100BA0000001A8F10108F5DC05E019F8010B524637
:100BB0000D999047761CBBF10001ABF1010BF4DC01
:100BC0006D1C34E7092801000246481E1040101A27
:100BD00070477CB50446204600F040F805466A465A
:100BE00001A900F017FA2046DDE9002100F0D4F851
:100BF0007CBD70B50446204600F004F805462C6024
:100C0000284670BD2DE9F0410446204600F026F844
:100C1000061F204600F027F80746314600F086FA06
:100C200005462846BDE8F081416841F00101416078
:100C30007047416841F0020141607047416821F00E
:100C4000020141607047027902F003020A434260E8
:100C50007047416821F001014160704701464868D2
:100C600020F003007047014601F10800704710B5FD
:100C7000FFF795FA10BD000010B507480CC80748EB
:100C800000680021FFF7B6FA0549086008460068C9
:100C900000F00EF810BD0000400000200000002011
:100CA0004800002010B5FFF77FFA10BDFFF76AFA81
:100CB00010B50446002000F0D5FA204600F0B8FA3E
:100CC00010BDF0B50446059D581920F007004FF0FF
:100CD0008077061F30463760061F30463460061F97
:100CE000304632604FF01237061F304637604FF003
:100CF0000337061F304637604FF00237061F304675
:100D000037607F10061F30463760061F304631605F
:100D10004FF01137061F304637604FF01037061F6F
:100D2000304637604FF00937061F304637604FF0C6
:100D30000837061F304637604FF00737061F30462A
:100D400037604FF00637061F304637604FF00537E3
:100D5000061F304637604FF00437061F30463760B5
:100D6000F0BD000070B504460D46E1B20548FFF73E
:100D700014FE00BF80210348FFF742FD0028F9D090
:100D8000204670BD0038014010B50446204600F0F2
:100D9000B1FEC0F1200010BD30B5114C04EBC11400
:100DA00054F8223083600E4C743CC460D8607434B4
:100DB00004EBC11444F82200094C743C2569012459
:100DC0008C402543064C743C2561143454F8215062
:100DD000012494402C43024D603D45F8214030BD34
:100DE000D43A002000BF00BFFEE700001FB500207E
:100DF00008490968084A12680923CDE90032CDE99B
:100E000002100346054A06A1074801F019F804B08C
:100E100010BD0000FC220008F8220008E50D0008C3
:100E200069646C6500000000A809002001460348C1
:100E3000814201D1012070470020FCE7A809002071
:100E40000348007808B1012070470020FCE700004B
:100E5000280000200348007808B1012070470020D6
:100E6000FCE7000029000020014604480068814298
:100E700001D1012070470020FCE70000380000206D
:100E800010B50024FFF7DCFF00B110BDFFF7E2FF53
:100E900000B1FAE700BF00F039FE044600BF00F0E1
:100EA0003BFA0B49086008460068FFF7DDFF28B1F0
:100EB00000BF204600F024FE00BFE6E7FFF7D7FEA4
:100EC00000BF204600F01CFE00BF00BFDDE70000B1
:100ED0003C0000201FB5FFF74BFC1FA0FFF764FD8F
:100EE00000F018FE4FF4FA71002000F08DFF21A0F1
:100EF000FFF75AFD14204FF48061224A0323CDE905
:100F00000032CDE9021000231F4A20A1214800F041
:100F100097FF04461CB121461FA0FFF745FD29A0FD
:100F2000FFF742FD14204FF480612A4A0423CDE9E3
:100F30000032CDE902100023274A28A1294800F0F9
:100F40007FFF04461CB1214627A0FFF72DFD00F0CE
:100F5000C5FE002004B010BD57656C636F6D652041
:100F6000746F2054656E63656E744F532074696EA0
:100F7000790D0A00637265617465207461736B3169
:100F80000D0A000050010020DD1500087461736B2C
:100F9000310000008000002054656E63656E744F60
:100FA0005320437265617465207461736B312066F0
:100FB00061696C2120636F6465203A202564200DEF
:100FC0000A000000637265617465207461736B329E
:100FD0000D0A000050050020011600087461736BB3
:100FE00032000000E800002054656E63656E744FA7
:100FF0005320437265617465207461736B3220669F
:1010000061696C2120636F6465203A202564200D9E
:101010000A0000002DE9F04104460F469046802C5E
:1010200006D200252046E11704EB91718E1009E0ED
:101030002046FFF7C9FC0546681F44FA00F080F01F
:101040002006AD1F3D60C8F80060BDE8F0810000DB
:101050000E4A13469A60DA6000221A61002011E0FD
:1010600000230A4A143242F82030002107E0074BDF
:1010700003F1740202EBC01242F82130491C20290E
:10108000F5DB401C1828EBDB70470000603A0020BD
:1010900070B504460D46FFF7DBFF2946204600F0F9
:1010A00077FE70BD10B500240BE0074901EB04107A
:1010B00000F068FE044901EB0410044900F02AFE28
:1010C000641C0A2CF1D310BDD4460020700000200F
:1010D00070B50446256900BFD4E906104860016078
:1010E00000BF00BF0020206195F840000A2808D00A
:1010F00095F84010284600F0DBFF0A2085F84000F4
:1011000009E0687C217D884205D0217D284600F0D9
:10111000CFFF0A20207570BD10B504462046FFF7AA
:10112000D7FF0421204600F070F810BD0246501889
:10113000704770B50446201D00F004FE08B1002081
:1011400001E06068303805460DB1687C70BD0A204A
:10115000FCE770B502460B461D1D286807E0A0F1AC
:101160003006517C747CA14200DA02E00068A8429B
:10117000F5D100BF02F130014468416008604C6065
:10118000216000BF00BF536400BF117C41F0020129
:10119000117400BF70BD10B5044604F1300000F0BA
:1011A000CBFD2046616CFFF7D4FF10BD10B504469F
:1011B00004F1300000F0C0FD0020606400BF207C1E
:1011C00020F00200207400BF10BD70B504460D462B
:1011D00000BF207C00F0020020B184F84850204677
:1011E000FFF7E4FF00BF207C00F0010010B12046B3
:1011F00000F0C0FA00BF207C00F0040000B170BD18
:10120000204600F037F800BFF9E72DE9F041054628
:101210000F466C68266806E0A4F130003946FFF7F7
:10122000D4FF34462668281D8442F5D1BDE8F081FC
:1012300070B504462546B5F1807F00D311E025F056
:101240007F40401E4FF0E02148610F214FF0FF30FA
:10125000FFF730F900204FF0E02188610720086196
:1012600000BF70BD10B5044621464FF0FF30FFF7B8
:1012700021F910BD10B50446607C06490968497C17
:10128000884203D1204600F021F802E0204600F019
:1012900003F810BD380000202DE9F04105466E7CB2
:1012A000094800EBC604204600F054FD10B130465A
:1012B00000F09CF805F13007214638462268FFF718
:1012C0009EFB00BFBDE8F0815009002070B50446C8
:1012D000657C084800EBC506304600F03BFD10B1C8
:1012E000284600F083F8314604F1300000F01BFD81
:1012F00070BD00005009002070B50446054800EBA1
:10130000C405284600F026FD08B1002070BD2868FD
:101310003038FBE750090020044890F85400034A95
:1013200002EBC00108683038704700005009002007
:101330000A210E4A82F854100021084608E00B4AA0
:1013400002EBC0010960496000BF411CC9B20846F8
:101350000A28F4D3002006E000220449503141F865
:101360002020411CC8B20028F6D070475009002048
:101370000146064800EBC1021068A0F13003186B6B
:10138000904201D1012070470020FCE75009002065
:1013900070B506460A4800EBC605284600F0DAFCA0
:1013A00060B92C6800BFD4E90010FFF72DFB00BF27
:1013B0002946204600F0B7FC00BF00BF70BD00000A
:1013C0005009002070B50025074C03E005F120000E
:1013D000C5B2241D20680028F8D0206800F08AFBE0
:1013E0002844C5B2284670BDA009002000BF4211A4
:1013F0000C4951F8221000F01F02C2F11F03012214
:101400009A4011434311074A42F8231000BFA2F14A
:10141000500191F85410814203DDA2F1500181F88E
:1014200054007047A009002070B505466C7C164832
:1014300000EBC40600BFD5E90C10FFF7E5FA00BFCA
:10144000304600F087FC98B100BF61110E48503063
:1014500050F8210004F01F01C1F11F020121914049
:10146000884362110849503141F8220000BF00BF93
:10147000054890F85400A04204D1FFF7A3FF0249A9
:1014800081F8540070BD00005009002070B5054679
:1014900000262948007800B170BD00BF00F036FB7F
:1014A000064600BF2846FFF727FF04461CB120462A
:1014B000FFF7BCFC28B100BF304600F021FB00BFA5
:1014C000EAE72846FFF754FF28B100BF304600F096
:1014D00017FB00BFE0E7FFF7BDFC28B100BF3046B7
:1014E00000F00EFB00BFD7E7206D10B1206D401E4D
:1014F0002065206D28B100BF304600F001FB00BF21
:10150000CAE70E490968487CFFF742FF2846FFF703
:10151000F3FE0446E06C18B909480068206501E054
:10152000E06C206500BF304600F0EAFA00BFFFF72C
:10153000A7FC00BFB0E700005800002038000020E2
:101540005400002010B5002000F054FD10BD2DE91E
:10155000F04105464FF00A08AE6B09E0A6F1180706
:101560003846FFF7E6FD0446444500DAA0463668F3
:1015700005F138008642F1D14046BDE8F08170B5F2
:101580000546AC6B266805E0A4F11800FFF7C4FD22
:101590003446266805F138008442F5D170BD10B597
:1015A000044604F1280000F0F0FB04F1300000F0E4
:1015B000ECFB04F1380000F0E8FB0A2084F840005E
:1015C000002084F8480060646065A06510BD014695
:1015D000087C08B9012070470020FCE706E004A061
:1015E000FFF7E2F9C820002100F0BEFCF7E7000099
:1015F0007461736B312072756E6E696E670D0A00CF
:101600001FA0FFF7D1F94FF4FA60002100F0ACFC05
:101610001FA0FFF7C9F9224800F0FCFD04461CB1E9
:10162000214620A0FFF7C0F94FF4FA60002100F036
:101630009BFC25A0FFF7B8F9194800F0AAFD044665
:101640001CB1214624A0FFF7AFF94FF4FA60002146
:1016500000F08AFC28A0FFF7A7F9114800F0CAFCA7
:1016600004461CB1214628A0FFF79EF907E004A01C
:10167000FFF79AF94FF47A70002100F075FCF6E755
:101680007461736B322072756E6E696E670D0A003D
:1016900073757370656E64207461736B310D0A002D
:1016A0008000002073757370656E64207461736BC5
:1016B00031206661696C2120636F6465203A2025C2
:1016C00064200D0A00000000726573756D6520745A
:1016D00061736B310D0A0000726573756D6520745E
:1016E00061736B31206661696C2120636F646520D2
:1016F0003A202564200D0A0064657374726F7920A6
:101700007461736B310D0A0064657374726F7920B4
:101710007461736B31206661696C2120636F64654D
:10172000203A202564200D0A0000000070B506460E
:1017300014461D46002184EA01006940084301D196
:10174000642070BD4FF0FF3184EA01006940084316
:1017500001D16520F5E7C6E9084522462B4630460B
:1017600000F014F800BF307C40F00100307400BF7E
:101770000020E6E710B50446204600F059F800BF07
:10178000207C20F00100207400BF10BD2DE9FF5F18
:1017900081464FF0000BDA4600210F46884600BF15
:1017A00000F0B4F9834600BFDDE90201C9E9080190
:1017B0001E4804680FE0A4F1280ADAE90810CD19E0
:1017C00040EB0806D9E90810491BB04100D205E0FA
:1017D0002F46B046246815488442ECD100BFD9E9B1
:1017E0000810C91B60EB0800C9E908100F488442C3
:1017F0000BD0BAF1000F08D0DAE90830D9E90812A5
:10180000591A60EB0200CAE9081009F12800616862
:10181000606004604160086000BF00BF00BF5846C0
:1018200000F06EF900BFBDE8FF9F00004C000020F3
:1018300070B50446002600BF00F068F9064600BFF8
:1018400004F1280000F096FA08B1002001E0A06A37
:1018500028380546F5B11649A06A88421AD06FF0BB
:1018600001014810D4E908238A1A60EB0300D5E986
:101870000813511A984108D3D5E90820D4E9083152
:10188000D2184841C5E9082004E06FF00101481072
:10189000C5E9081000BFD4E90A104860016000BF24
:1018A00000BF00BF304600F02BF900BF70BD000044
:1018B0004C0000202DE9F04704460D464FF0000A89
:1018C00000BF00F023F9824600BF2748D0E900108E
:1018D00009196841244AC2E90010244800F04AFA74
:1018E00030B100BF504600F00BF900BFBDE8F087F3
:1018F0001E480068A0F12806D6E90801201A75EBF9
:10190000010003D30021316271620CE0D6E90810B6
:10191000091B60EB0500C6E9081000BF504600F047
:10192000EFF800BFE2E711480768D7F8009010E031
:10193000A7F128080023D8E908105940584001436E
:1019400000D009E002214046FFF73FFC4F46D7F8A0
:10195000009006488742EBD100BF00BF504600F020
:10196000CFF800BF00BFC1E7300000204C000020CE
:10197000002070472DE9F04105460026002700BFF2
:1019800000F0C4F8064600BF1B49D5E90420D1E9A0
:101990000031D2184841C5E90420184884680AE09B
:1019A000A4F10807D5E90430D7E90412591A904187
:1019B00000D204E02468114808308442F0D100BF0E
:1019C00005F108006168606004604160086000BF64
:1019D00000BF0A48816805F10800814204D1074A26
:1019E000D5E90410C2E9001000BF304600F088F8C5
:1019F00000BFBDE8F0810000300000206000002042
:101A00002DE9F0410446002700BF00F07FF80746AB
:101A100000BF17488068A0F1080500BFD4E9021094
:101A20004860016000BF00BFA54219D104F1080061
:101A30000168814201D1012100E0002109B10020AB
:101A400001E0A068083806462EB94FF0FF31084A79
:101A50001160516004E0064AD6E90410C2E90010A2
:101A600000BF384600F04CF800BFBDE8F081000030
:101A70006000002070B51D48D0E900201C49D1E964
:101A80000031D21A884100D270BD00F0C9F8174861
:101A900085682E6820E0A5F108041548D4E90412F1
:101AA000D0E90030591A904100D219E02046FFF7E2
:101AB000A7FF208D022807D1D4E90801C4E9040159
:101AC0002046FFF757FF02E0032084F82A00D4E9FC
:101AD0000010884735462E68044808308542DAD120
:101AE00000BF00F0CBF800BFCEE700006000002090
:101AF0003000002010B504462046FEF740FB10BD24
:101B000010B504462046FEF737FB10BD10B5FEF7B2
:101B10002FFB10BD10B5FFF7AFF8FFF709FC4FF42E
:101B200040510948FFF7B4FAFFF7BCFAFFF75EF936
:101B300004460CB1204610BDFFF71AFF04460CB155
:101B40002046F8E70020F6E7600A002000B500F024
:101B50005DF800B900BD08480078FA2801DB0120D3
:101B600000E0002000B1F5E703480078401C02497E
:101B7000087000BFEEE700002800002010B5002428
:101B800000F044F800B910BD00BFFFF7BFFF0446E6
:101B900000BFFFF755F928B900BF2046FFF7B0FF97
:101BA00000BFF0E717480078401E16490870FFF79D
:101BB00047F928B100BF2046FFF7A2FF00BFE2E7C8
:101BC000FFF748F928B100BF2046FFF799FF00BF93
:101BD000D9E7FFF7A1FB0C49086008460068FFF74A
:101BE00043F928B100BF2046FFF78AFF00BFCAE7CC
:101BF000FFF758F800BF2046FFF782FF00BF00BF85
:101C0000C1E70000280000203C00002003480078C5
:101C1000012800D170470020FCE700002A000020C6
:101C200010B5002400BFFFF70BF908B1012000E058
:101C3000002010B14FF4C87010BD00BFFFF7E6FFE1
:101C400010B94FF4FA70F7E70B480078FA2802DB76
:101C50004FF41670F0E700BFFFF758FF044600BFCF
:101C600005480078401C0449087000BF2046FFF773
:101C700047FF00BF0020DFE72900002010B5002447
:101C800000BFFFF7DDF808B1012000E0002010B12F
:101C90004FF4C87010BD00BFFFF7B8FF10B94FF484
:101CA000FA70F7E7FFF7D6F810B940F2A560F1E750
:101CB00000BFFFF72BFF044600BF07480078401E17
:101CC0000549087000BF2046FFF71AFF00BFFFF765
:101CD000D7F80020DEE700002900002010B5FFF74C
:101CE00095FF10B140F2F51010BDFFF715FB064946
:101CF000086008460068054908600120044908702A
:101D0000FEF7D4FF0020EFE73C0000203800002061
:101D10002A00002070B505460C4621462846226858
:101D2000FEF768FE70BD70B505460C462246284693
:101D30006168FEF764FE70BDD0E900124A60116070
:101D400000BF704701460868884201D101207047F2
:101D50000020FCE701460868884201D10120704755
:101D60000020FCE701460868884201D10120704745
:101D70000020FCE701460868884201D10120704735
:101D80000020FCE7006040607047006040607047E2
:101D90002DE9F04105460E46A6F108000421FEF7A4
:101DA00013FF044605F0030018B14FF44870BDE876
:101DB000F0810C2C02D3B4F1804F02D940F22130D3
:101DC000F5E76FF003012846FFF7B0F90746214613
:101DD0003846FEF738FF3846FEF726FF3846FEF74E
:101DE0002DFF3846FEF7F5FE3846FEF702FF804627
:101DF00000214046FEF727FF4046FEF72AFF4046F7
:101E0000FEF717FF0020D2E770B505460C46002606
:101E100000BFFFF77BFE064600BF0748057014B100
:101E20000648046002E064200449086000BF3046B0
:101E3000FFF766FE00BF70BD580000205400002070
:101E40002DE9FC5F04468B4615461E460CAF97E80D
:101E500080070020019000BFFEF7F2FF08B10120CB
:101E600000E0002018B14FF4C870BDE8FC9F00BF2F
:101E700000BF0CB9012000E0002010B140F24C403E
:101E8000F3E700BF00BF0DB9012000E0002010B152
:101E900040F24C40E9E700BF00BFB8F1000F01D1AC
:101EA000012000E0002010B140F24C40DDE700BF0F
:101EB000B9F1400F01D2012000E0002010B140F242
:101EC0007370D2E7092F05D12046FEF7AFFF08B99E
:101ED000012000E0002010B140F26E70C5E7092F2C
:101EE00001DD012000E0002010B140F26E70BCE77F
:101EF0002046FFF754FB4346194A31462846CDF8A1
:101F00000090FEF7DEFE2060A560E660C4F804B035
:101F10006774C4F81480C4F81890C4F84CA0BAF1DF
:101F2000000F03D10F480068206501E0C4F850A0FD
:101F300000BFFFF7EBFD019000BF00BF0020207441
:101F400000BF2046FFF7C2F900BF0198FFF7D8FD98
:101F500000BFFFF75BFE08B1FEF792FF002084E7A9
:101F6000451500085400002070B504460D460026B3
:101F700000BFFEF765FF08B1012000E0002010B1AE
:101F80004FF4C87070BD00BFFEF764FF10B140F29F
:101F9000A460F7E7002184EA01006940084301D109
:101FA000012000E0002018B100F070F90020E9E7FE
:101FB00000BFFFF7ABFD064600BF22462B460C488C
:101FC0000068FFF7B3FB30B100BF3046FFF798FD64
:101FD00000BF6520D6E706480068FFF725FA00BF76
:101FE0003046FFF78DFD00BFFEF74AFF0020C9E72E
:101FF0003800002070B50446002500BFFEF720FF22
:1020000008B1012000E0002010B14FF4C87070BD8D
:1020100000BF0CB9012000E0002008B1234804688B
:102020002046FEF703FF10B140F26C70EFE7204648
:10203000FEF71AFF28B1FEF70DFF10B140F2A460C1
:10204000E5E700BFFFF762FD054600BF04F1380079
:10205000FFF788FE10B92046FFF791FA2046FFF7F8
:10206000B6FA10B12046FFF7DFF900BF207C00F080
:10207000010010B12046FFF77DFB00BF207C00F07F
:10208000020010B12046FFF791F82046FFF787FACB
:1020900000BF0820207400BF00BF2846FFF730FDB6
:1020A00000BFFEF7EDFE0020B1E700003800002081
:1020B0002DE9F04104460D46002700BF0CB9012070
:1020C00000E0002018B140F24C40BDE8F08100BFB4
:1020D00000BFFEF7B5FE08B1012000E0002010B1FE
:1020E0004FF4C870F1E700BF092D01DB012000E0CB
:1020F000002010B140F26E70E7E700BFFFF706FD69
:10210000074600BF607CA84208D100BF3846FFF7F1
:10211000F7FC00BFFEF7B4FE0020D6E704F138005C
:10212000FFF720FE40B92046FFF711FA0646B542F8
:1021300002DD84F84050354600BF207C00F00200EC
:1021400020B165742046FFF726F819E000BF207C17
:1021500000F0010008B1657412E02046FFF737FA7D
:1021600070B12046FFF760F965742046FEF77CFEEB
:1021700018B12046FFF790F802E02046FFF7A6F8D6
:1021800000BF3846FFF7BCFC00BFFEF779FE002019
:102190009BE770B50446002500BF0CB9012000E0A4
:1021A000002010B140F24C4070BD00BF2046FEF749
:1021B0005BFE08B1012000E0002010B140F26F701A
:1021C000F2E700BFFFF7A2FC054600BF00BF207C7E
:1021D00000F0040040B900BF2846FFF791FC00BFA3
:1021E000FEF74EFE0020DFE700BF207C20F0040059
:1021F000207400BF2046FFF7EAF910B12046FFF730
:1022000039F800BF2846FFF77BFC00BFFEF738FE19
:102210000020C9E770B5044600250CB9012000E094
:10222000002008B1184804682046FEF7FFFD10B1F1
:1022300040F2717070BD2046FEF716FE08B1012015
:1022400000E0002028B1FEF705FE10B140F2A460C6
:10225000F0E700BFFFF75AFC054600BF2046FFF736
:10226000B6F910B12046FFF7DFF800BF207C40F040
:102270000400207400BF00BF2846FFF741FC00BFE8
:10228000FEF7FEFD0020D5E73800002010B5002441
:10229000FEF7D6FD00B110BD00BFFFF737FC0446C6
:1022A00000BF08480068FFF7BFF806480068FFF75E
:1022B0000DF800BF2046FFF723FC00BFFEF7E0FD4E
:1022C00000BFE8E73800002010B5FFF79FFC08B911
:1022D000012000E0002000B110BD01200021FFF727
:1022E000E9FAFFF7C7FB03490968487CFFF7CEF816
:1022F00000BFF1E738000020100A00205000000065
:1023000020230008000000207C000000D6090008FF
:102310009C2300087C000020FC4A0000E60900081D
:1023200000A24A04000000000000000001020304B3
:10233000060708090000000001020304010203046B
:10234000060708090204060800000000000000005B
:10235000000000000000000000000000000000007D
:10236000E803000000000000000000004C00002016
:102370004C0000206400000001000000000000008C
:10238000FFFFFFFFFFFFFFFF680000206800002045
:0C23900070000020700000200000000021
:0400000508000131BD
:00000001FF
