:020000040800F2
:10000000304D002045010008ED030008E50300081D
:10001000E9030008C9020008870900080000000081
:10002000000000000000000000000000B50500080E
:10003000CD02000800000000B3010008A10600087E
:100040005F0100085F0100085F0100085F01000810
:100050005F0100085F0100085F0100085F01000800
:100060005F0100085F0100085F0100085F010008F0
:100070005F0100085F0100085F0100085F010008E0
:100080005F0100085F0100085F0100085F010008D0
:100090005F0100085F0100085F0100085F010008C0
:1000A0005F0100085F0100085F0100085F010008B0
:1000B0005F0100085F0100085F0100085F010008A0
:1000C0005F0100085F0100085F0100085F01000890
:1000D0005F010008190700085F0100085F010008C0
:1000E0005F0100085F0100085F0100085F01000870
:1000F0005F0100085F0100085F0100085F01000860
:100100005F0100085F0100085F0100085F0100084F
:100110005F0100085F0100085F0100085F0100083F
:100120005F0100085F0100085F0100085F0100082F
:10013000DFF80CD000F0B6F800480047F10F0008D7
:10014000304D00200648804706480047FEE7FEE79E
:10015000FEE7FEE7FEE7FEE7FEE7FEE7FEE7FEE777
:10016000B90600083101000872B6704762B67047E0
:10017000EFF3108072B6704780F310887047B0FAC2
:1001800080F0704717484FF0FF010170002080F3A6
:10019000098815484FF08051016062B6FEE71248A9
:1001A0004FF08051016070470F484FF0805101605F
:1001B000704772B6EFF3098028B1203880E8F00F5D
:1001C0000A4909680860094809490A680260106814
:1001D00090E8F00F203080F309884EF0040E62B6EC
:1001E000704700BF22ED00E004ED00E03800002081
:1001F0003C0000202DE9F05F0546002092469B461A
:1002000088460646814640241BE02846414647462C
:10021000224600F036F853465A46C01A914110D390
:1002200011461846224600F01DF82D1A67EB01080A
:100230004F4622460120002100F014F817EB000978
:100240004E41201EA4F10104DFDC484631462A4617
:100250004346BDE8F09F421C10F8011B0029FBD16A
:10026000801A7047202A04DB203A00FA02F10020AD
:1002700070479140C2F1200320FA03F319439040E4
:100280007047202A04DB203A21FA02F0002170474F
:1002900021FA02F3D040C2F12002914008431946EE
:1002A00070470000064C074D06E0E06840F001038F
:1002B00094E8070098471034AC42F6D3FFF73CFFB0
:1002C000682900088829000800BFFEE770472DE96B
:1002D000F0410246002500260020002300240027CC
:1002E00091F803C00CF00F0591F803C00CF0100C4E
:1002F000BCF1000F03D091F802C04CEA050591F85B
:1003000000C0BCF1000F31D0146800202BE04FF08A
:10031000010C0CFA00F3B1F800C00CEA03069E428F
:1003200020D183004FF00F0C0CFA03F7BC4305FA01
:1003300003FC4CEA040491F803C0BCF1280F06D179
:100340004FF0010C0CFA00FCC2F814C00AE091F85E
:1003500003C0BCF1480F05D14FF0010C0CFA00FCB2
:10036000C2F810C0401C0828D1D31460B1F800C0F6
:10037000BCF1FF0F34DD546800202EE000F1080CC2
:100380004FF0010808FA0CF3B1F800C00CEA0306BC
:100390009E4221D183004FF00F0C0CFA03F7BC43AF
:1003A00005FA03FC4CEA040491F803C0BCF1280FE1
:1003B00005D100F1080C08FA0CF8C2F8148091F885
:1003C00003C0BCF1480F07D100F1080C4FF0010841
:1003D00008FA0CF8C2F81080401C0828CED35460EC
:1003E000BDE8F08100BFFEE700BFFEE7704708B53B
:1003F0004FF4A06000F046F825208DF800000120A1
:100400008DF801008DF802008DF80300684600F0B9
:1004100001F808BD70B5002100230F22C47804B391
:10042000154C246804F4E064C4F5E064210AC1F1C9
:100430000403CA40447804FA03F184781440214349
:1004400009010E4C0678A155047804F01F0501241B
:10045000AC4005786D11AD0005F1E025C5F800410F
:1004600009E0047804F01F050124AC40044D06782F
:10047000761145F8264070BD0CED00E000E400E088
:1004800080E100E002490143024A11607047000028
:100490000000FA050CED00E010B5002807DA0A07A5
:1004A000140E054A00F00F031B1FD45403E00A0783
:1004B000130E024A135410BD18ED00E000E400E0F2
:1004C00029B1064A92690243044B9A6104E0034A47
:1004D00092698243014B9A6170470000001002400C
:1004E00030B500210022002400232D4D6D6805F059
:1004F0000C0121B1042905D0082923D105E0294D9B
:10050000056022E0274D05601FE0254D6D6805F46C
:100510007012234D6D6805F48034022505EB92427C
:100520001CB9214D554305600BE01D4D6D6805F468
:1005300000351DB11C4D5543056002E0194D554372
:10054000056002E0174D056000BF00BF144D6D68E7
:1005500005F0F0010909154D6B5C0568DD4045604B
:100560000F4D6D6805F4E061090A104D6B5C45683C
:10057000DD4085600A4D6D6805F46051C90A0B4D78
:100580006B5C4568DD40C560054D6D6805F4404114
:10059000890B074D6B5CC568B5FBF3F5056130BD94
:1005A0000010024000127A0000093D0014000020F3
:1005B00024000020704710B500F002F810BD0000C4
:1005C0000CB50020019000903348006840F4803062
:1005D0003149086000BF3048006800F400300090E6
:1005E0000198401C0190009818B90198B0F5A06FCF
:1005F000F1D12948006800F4003010B101200090CA
:1006000001E0002000900098012843D123480068B1
:1006100040F01000214908600846006820F00300FF
:1006200008600846006840F0020008601A48406808
:10063000194948600846406848600846406840F4E8
:10064000806048600846406820F47C104860084696
:10065000406840F4E81048600846006840F0807048
:10066000086000BF0C48006800F000700028F9D056
:100670000948406820F00300074948600846406880
:1006800040F00200486000BF0348406800F00C00E2
:100690000828F9D10CBD00000010024000200240E3
:1006A00010B501F095FC28B101F032FC02F040F9E0
:1006B00001F046FC10BD000010B51348006840F082
:1006C00001001149086008464068104908400E4979
:1006D0004860084600680E4908400B490860084613
:1006E000006820F4802008600846406820F4FE007E
:1006F00048604FF41F008860FFF75DFF4FF0006017
:100700000449086010BD0000001002400000FFF81E
:10071000FFFFF6FE08ED00E010B540F22551064857
:1007200000F06DF838B1044800F024F9C4B2214655
:10073000014800F024F910BD0038014021B1828940
:1007400042F40052828104E082894DF6FF731A4020
:100750008281704700B585B001210420FFF7B0FE0B
:1007600001218803FFF7ACFE4FF40070ADF81000D4
:1007700018208DF8130003208DF8120004A91748E3
:10078000FFF7A5FD4FF48060ADF8100004208DF850
:10079000130004A91148FFF79AFD4FF4E1300090CF
:1007A0000020ADF80400ADF80600ADF80800ADF883
:1007B0000C000C20ADF80A006946094800F06EF8FC
:1007C000FFF715FE012240F22551054800F041F8DF
:1007D00001210348FFF7B2FF05B000BD000801404A
:1007E0000038014002460020B1F5007F00D100BF73
:1007F00013880B400BB1012000E00020704770B55A
:100800000246002400230025002040F66A16B1426B
:1008100000D100BFC1F3421501F01F03012606FA03
:1008200003F3012D02D19689334006E0022D02D157
:10083000168A334001E0968A33400C12012606FAEC
:1008400004F41688344013B10CB1012000E00020FC
:1008500070BDF0B50346002400260025002040F6B8
:100860006A17B94200D100BF1846C1F3421401F023
:100870001F06012707FA06F5012C01D10C3004E010
:10088000022C01D1103000E014301AB107682F4358
:10089000076002E00768AF430760F0BD2DE9F0474D
:1008A00086B005460E460024A24600BFA14600279A
:1008B000B08900B100BF2F462C8A4CF6FF7004406F
:1008C000F08804432C82AC894EF6F3100440B088C3
:1008D00031890843718908430443AC81AC8A4FF6DF
:1008E000FF400440B0890443AC8201A8FFF7F8FD43
:1008F0001F48874202D1DDF810A001E0DDF80CA00E
:10090000A88900F4004040B10AEBCA0000EB0A10CD
:1009100031684900B0FBF1F807E00AEBCA0000EBD0
:100920000A1031688900B0FBF1F86420B8FBF0F0E0
:1009300004012009642101FB1089A88900F400400A
:1009400040B1322000EBC900B0FBF1F000F007002D
:10095000044308E0322000EB09106421B0FBF1F001
:1009600000F00F0004432C8106B0BDE8F0870000C2
:100970000038014001468888C0F308007047C1F381
:1009800008028280704700BFFEE700000FB4054BED
:1009900010B503A9044A029800F040F810BC5DF8B5
:1009A00014FB0000810E0008780000200FB4084BF3
:1009B00010B504A902AA039800F030F8044602A971
:1009C000002000F08BF9204610BC5DF814FB0000FD
:1009D000DD0C000810B50446204600F063FA401E06
:1009E00010BD02E008C8121F08C1002AFAD17047E2
:1009F0007047002001E001C1121F002AFBD170479F
:100A00005060026041600860704750600260416061
:100A10000860704748600160704700002DE9FF4F93
:100A20008DB09B460F460446002606E025280BD0D5
:100A30005A460F999047641C761C20780028F5D1FF
:100A400011B03046BDE8F08F0025A8460122984934
:100A500000E0054314F8013F203B02FA03F008428E
:100A6000F7D120782E2817D114F8010F45F004058E
:100A70002A280ED06FF02F022078A0F1300109292A
:100A80000AD808EB880102EB410100EB0108641C65
:100A9000F2E757F8048B641C20786C280DD004DC36
:100AA0004C2812D06A2811D104E074280DD07A287D
:100AB0000CD10AE045F4001507E0617845F4801593
:100AC000814202D1641C05F58015641C2278692AD4
:100AD00045D008DC002AB3D0582A69D0632A10D048
:100AE000642A08D13BE0702A67D0732A13D0752A94
:100AF0005CD0782A5CD010465A460F999047761CF5
:100B0000D3E017F8040B8DF8000000208DF80100E9
:100B1000E946012003E057F8049B4FF0FF306907D6
:100B20004FF0000501D40AE06D1C45450DDA854201
:100B3000FADB19F805100029F6D106E06D1C854294
:100B4000FCDB19F805100029F8D12E4404E019F84F
:100B5000010B5A460F9990476D1EF8D2A5E00A2066
:100B60000021CDE90801C5F3025002280DD001CFC4
:100B7000C117031E71F100030DDA4FF0000CD0EB2A
:100B80000C006CEB01012D2308E0FF1D27F0070787
:100B9000F7E80201EDE72B0504D52B238DF828306B
:100BA00001233BE0EB0739D02023F7E70A2000E0E0
:100BB00010200021CDE9080107E01020002145F0B8
:100BC0000405CDE908014FF00808C5F302500228DA
:100BD0000FD001CF00214FF0000A2B071FD5702A3C
:100BE0000DD0DDE908C38CF0100C5CEA030C0CD0CE
:100BF00015E0FF1D27F00707F7E80201EBE74022A9
:100C00008DF828204FF0010A0BE050EA010306D0CE
:100C100030238DF828308DF8292002239A46582A4F
:100C200004D024A20DF120090B9209E026A2F9E7D5
:100C3000DDE90823FFF7DEFA0B9B9B5C09F8013D19
:100C400050EA0102F4D1ADEB0900203008906807AA
:100C500001D44FF001080899884502DDA8EB010096
:100C600000E000208046002506E00AA85A46405DC4
:100C70000F9990476D1C761C5545F6DB04E030203B
:100C80005A460F999047761CB8F10001A8F1010867
:100C9000F5DC05E019F8010B5A460F999047761CD0
:100CA0000899481E08900029F4DC641CC5E6000081
:100CB0000928010030313233343536373839616232
:100CC00063646566000000003031323334353637F6
:100CD0003839414243444546000000000A68531C2D
:100CE0000B60107070470246481E1040101A704783
:100CF0007CB50446204600F040F805466A4601A946
:100D000000F076FA2046DDE9002100F0D3F87CBD42
:100D100070B50446204600F004F805462C602846CD
:100D200070BD2DE9F0410446204600F026F8061F6C
:100D3000204600F027F80746314600F003FB054641
:100D40002846BDE8F081416841F0010141607047EB
:100D5000416841F0020141607047416821F00201A1
:100D600041607047027902F003020A434260704713
:100D7000416821F00101416070470146486820F058
:100D800003007047014601F10800704710B5FFF7F6
:100D900006FA10BD10B507480CC8074800680021C6
:100DA000FFF728FA054908600846006800F00EF8C9
:100DB00010BD00004000002000000020480000207E
:100DC00010B5FFF7F1F910BDFFF7DCF910B50446D7
:100DD000002000F093FB204600F076FB10BDF0B53C
:100DE0000446059D581920F007004FF08077061F34
:100DF00030463760061F30463460061F304632608A
:100E00004FF01237061F304637604FF00337061F8A
:100E1000304637604FF00237061F304637607F108C
:100E2000061F30463760061F304631604FF01137DD
:100E3000061F304637604FF01037061F30463760C8
:100E40004FF00937061F304637604FF00837061F4E
:100E5000304637604FF00737061F304637604FF097
:100E60000637061F304637604FF00537061F3046FD
:100E700037604FF00437061F30463760F0BD000082
:100E800070B504460D46E1B20548FFF778FD00BF96
:100E900080210348FFF7A6FC0028F9D0204670BD4A
:100EA0000038014010B50446204601F005F8C0F1B5
:100EB000200010BD30B5114C04EBC11454F82230A1
:100EC00083600E4C743CC460D860743404EBC1146D
:100ED00044F82200094C743C256901248C402543C8
:100EE000064C743C2561143454F82150012494407C
:100EF0002C43024D603D45F8214030BD8C3C002024
:100F000000BF00BFFEE700001FB5002008490968C8
:100F1000084A12680923CDE90032CDE902100346E0
:100F2000054A06A1074801F03BFB04B010BD0000D4
:100F30006429000860290008010F000869646C65D5
:100F400000000000600B002001460348814201D1EF
:100F5000012070470020FCE7600B00200348007868
:100F600008B1012070470020FCE7000028000020A5
:100F70000348007808B1012070470020FCE700001A
:100F800029000020014604480068814201D1012067
:100F900070470020FCE700003800002010B5002456
:100FA000FFF7DCFF00B110BDFFF7E2FF00B1FAE789
:100FB00000BF00F08DFF044600BF00F063FB0B494B
:100FC000086008460068FFF7DDFF28B100BF204633
:100FD00000F078FF00BFE6E7FFF7D8FE00BF20462D
:100FE00000F070FF00BF00BFDDE700003C00002004
:100FF0001FB5FFF7AFFB2BA0FFF7C8FC00F06CFF9D
:101000004FF4FA71002001F0AFFA2DA0FFF7BEFCFB
:10101000314801F004FA04461CB121462FA0FFF725
:10102000B5FC502305223A493A4801F008F9044634
:101030001CB1214638A0FFF7A9FC45A0FFF7A6FC8C
:1010400014204FF48061464A0323CDE90032CDE9F4
:1010500002100023434A44A1454801F0A1FA044686
:101060001CB1214643A0FFF791FC4DA0FFF78EFC79
:1010700014204FF480614E4A0423CDE90032CDE9BB
:10108000021000234B4A4CA14D4801F089FA044656
:101090001CB121464BA0FFF779FC01F001F80020BC
:1010A00004B010BD57656C636F6D6520746F20547C
:1010B000656E63656E744F532074696E790D0A0016
:1010C00063726561746520746573745F71756575AD
:1010D000655F30300D0A00002402002054656E6305
:1010E000656E744F53204372656174652074657337
:1010F000745F71756575655F3030206661696C215C
:1011000020636F6465203A202564200D0A000000EA
:10111000940000208000002054656E63656E744F5B
:10112000532043726561746520746573745F6D6DDF
:10113000626C6B5F706F6F6C5F3030206661696CE2
:101140002120636F6465203A202564200D0A000089
:10115000637265617465207461736B310D0A000000
:1011600008030020491900087461736B3100000006
:101170003802002054656E63656E744F53204372CD
:1011800065617465207461736B31206661696C21DF
:1011900020636F6465203A202564200D0A0000005A
:1011A000637265617465207461736B320D0A0000AF
:1011B00008070020091A00087461736B32000000F0
:1011C000A002002054656E63656E744F5320437215
:1011D00065617465207461736B32206661696C218E
:1011E00020636F6465203A202564200D0A0000000A
:1011F0002DE9F04104460F469046802C06D200258A
:101200002046E11704EB91718E1009E02046FFF7AC
:10121000E1FB0546681F44FA00F080F02006AD1F90
:101220003D60C8F80060BDE8F08100000E4A13463A
:101230009A60DA6000221A61002011E000230A4A55
:10124000143242F82030002107E0074B03F174020A
:1012500002EBC01242F82130491C2029F5DB401C6A
:101260001828EBDB70470000183C002070B50446DE
:101270000D46FFF7DBFF2946204601F024F870BD3C
:1012800010B50024064800F045FF08B1002010BD4D
:10129000034800680446204600F030FF2046F6E789
:1012A0007000002010B50446204600F027FF0249D8
:1012B000204600F011FF10BD7000002010B5002482
:1012C0000BE0074901EB041000F04CFF044901EB6F
:1012D0000410044900F000FF641C0A2CF1D310BD77
:1012E0008C4800207000002070B50446256900BFBE
:1012F000D4E906104860016000BF00BF00202061F3
:1013000095F840000A2808D095F84010284601F0CA
:101310007FFA0A2085F8400009E0687C217D884238
:1013200005D0217D284601F073FA0A20207570BD92
:1013300010B504462046FFF7D7FF0421204600F0F1
:10134000B0F810BD02465018704770B50446201D15
:1013500000F0E8FE08B1002001E060683038054682
:101360000DB1687C70BD0A20FCE710B50446201D55
:1013700000F0D8FE10BD70B502460B461D1D286852
:1013800007E0A0F13006517C747CA14200DA02E053
:101390000068A842F5D100BF02F130014468416005
:1013A00008604C60216000BF00BF536400BF117C27
:1013B00041F00201117400BF70BD10B5044604F184
:1013C000300000F0A1FE2046616CFFF7D4FF10BD95
:1013D00010B5044604F1300000F096FE0020606471
:1013E00000BF207C20F00200207400BF10BD70B54B
:1013F00004460D462580201D00F0B7FE70BD014655
:10140000012901D100207047022902D140F2436036
:10141000F9E7032902D140F24460F4E7042902D13C
:1014200040F24560EFE740F24260ECE72DE9F04121
:1014300006460F4614461D46304600F0ABF93946C5
:101440003046FFF798FF4FF0FF3184EA0100694012
:10145000084304D022462B46304600F049FBBDE845
:10146000F08170B504460D4600BF207C00F00200FC
:1014700020B184F848502046FFF7AAFF00BF207C27
:1014800000F0010010B1204600F056FB00BF207CA8
:1014900000F0040000B170BD204600F0A1F800BFCC
:1014A000F9E72DE9F04105460F466C68266806E02D
:1014B000A4F130003946FFF7D4FF34462668281DD2
:1014C0008442F5D1BDE8F08170B504462546B5F1FA
:1014D000807F00D311E025F07F40401E4FF0E021D7
:1014E00048610F214FF0FF30FEF7D6FF00204FF08C
:1014F000E02188610720086100BF70BD10B5044677
:1015000021464FF0FF30FEF7C7FF10BD2DE9F04731
:1015100004460F46914698464FF0000A00BF0CB9AA
:10152000012000E0002018B140F24C40BDE8F087F7
:1015300000BF00BF0FB9012000E0002010B140F251
:101540004C40F3E700BF00BF00F0C2FC824600BF82
:101550002046FFF70AFFB0B102234A46394604F19C
:101560000C0000F029FF38B100BF504600F0AAFC83
:1015700000BF40F2DD50D9E700BF504600F0A2FCAA
:1015800000BF0020D2E7B8F1000F07D16168A1F1D8
:1015900030004A46394600F018F80DE065682E68BC
:1015A00007E0A5F130004A46394600F00EF835460E
:1015B0002E68201D8542F4D100BF504600F082FC09
:1015C00000BFFFF7EBFC0020B0E770B504460E4605
:1015D00015466665A56501212046FFF742FF70BDEF
:1015E00010B50446607C06490968497C884203D1ED
:1015F000204600F021F802E0204600F003F810BD7C
:10160000380000202DE9F04105466E7C094800EBCA
:10161000C604204600F08EFD10B1304600F09CF864
:1016200005F13007214638462268FFF7EEF900BF82
:10163000BDE8F081080B002070B50446657C0848C1
:1016400000EBC506304600F075FD10B1284600F0ED
:1016500083F8314604F1300000F047FD70BD000012
:10166000080B002070B50446054800EBC405284669
:1016700000F060FD08B1002070BD28683038FBE73D
:10168000080B0020044890F85400034A02EBC00104
:101690000868303870470000080B00200A210E4A05
:1016A00082F854100021084608E00B4A02EBC00102
:1016B0000960496000BF411CC9B208460A28F4D33A
:1016C000002006E000220449503141F82020411C4E
:1016D000C8B20028F6D07047080B00200146064823
:1016E00000EBC1021068A0F13003186B904201D1E9
:1016F000012070470020FCE7080B002070B506466B
:101700000A4800EBC605284600F014FD60B92C68B5
:1017100000BFD4E90010FFF77DF900BF294620463D
:1017200000F0E3FC00BF00BF70BD0000080B00200C
:1017300070B50025074C03E005F12000C5B2241D5B
:1017400020680028F8D0206800F0B6FB2844C5B215
:10175000284670BD580B002000BF42110C4951F8BB
:10176000221000F01F02C2F11F0301229A40114310
:101770004311074A42F8231000BFA2F1500191F82B
:101780005410814203DDA2F1500181F854007047EA
:10179000580B002070B505466C7C164800EBC4065B
:1017A00000BFD5E90C10FFF735F900BF304600F057
:1017B000C1FC98B100BF61110E48503050F82100B3
:1017C00004F01F01C1F11F02012191408843621101
:1017D0000849503141F8220000BF00BF054890F889
:1017E0005400A04204D1FFF7A3FF024981F854003E
:1017F00070BD0000080B002070B505460026294882
:10180000007800B170BD00BF00F062FB064600BF6B
:101810002846FFF727FF04461CB12046FFF794FB3C
:1018200028B100BF304600F04DFB00BFEAE7284674
:10183000FFF754FF28B100BF304600F043FB00BF64
:10184000E0E7FFF795FB28B100BF304600F03AFB18
:1018500000BFD7E7206D10B1206D401E2065206DC0
:1018600028B100BF304600F02DFB00BFCAE70E498B
:101870000968487CFFF742FF2846FFF7F3FE04465D
:10188000E06C18B909480068206501E0E06C20654B
:1018900000BF304600F016FB00BFFFF77FFB00BF24
:1018A000B0E700005800002038000020540000205D
:1018B00010B5002000F04EFF10BD2DE9F0410546A7
:1018C0004FF00A08AE6B09E0A6F118073846FFF79B
:1018D0003CFD0446444500DAA046366805F1380070
:1018E0008642F1D14046BDE8F08170B50546AC6B4B
:1018F000266805E0A4F11800FFF71AFD34462668B3
:1019000005F138008442F5D170BD10B5044604F1EC
:10191000280000F02DFC04F1300000F029FC04F157
:10192000380000F025FC0A2084F84000002084F8EC
:10193000480060646065A06510BD0146087C08B978
:10194000012070470020FCE71FB527E014A0FFF737
:101950001DF84FF0FF31009102AA019103A914482C
:1019600000F074FD04466CB912A0DDE90221FFF716
:101970000DF81948039900F02CFC044614B917A07F
:10198000FFF704F840F24460844207D119A0FEF743
:10199000FDFF6FF00100411000F096FED6E7000059
:1019A00071756575652070656E640D0A0000000034
:1019B0002402002071756575652070656E64206471
:1019C0006174612069732025732C73697A652069BD
:1019D000732025640D0A0000800000206D6D626C8C
:1019E0006B206672656520737563636573730D0A9A
:1019F000000000007175657565206973206465736A
:101A000074726F790D0A000008B50020009017A0CD
:101A1000FEF7BCFF28E06946184800F0ACFB04461E
:101A20004CB1214616A0FEF7B1FF6FF00100411046
:101A300000F04AFE13E01AA1009A1046FEF7B6FF26
:101A40000098FEF708FC05462A462048009900F059
:101A50007FFD04461CB121461DA0FEF797FF4FF401
:101A60007A70002100F030FED5E700007461736BDE
:101A7000322072756E6E696E670D0A00800000205C
:101A80006D6D626C6B20616C6C6F63206661696C5C
:101A90002120636F6465203A202564200D0A000030
:101AA000746869732069732061206D6D626C6B20AE
:101AB000746573742C206D6D626C6B20616464724C
:101AC000206973202523780D0A00000024020020DD
:101AD000717565756520706F7374206661696C211E
:101AE00020636F6465203A202564200D0A00000001
:101AF00070B5064614461D46002184EA010069407F
:101B0000084301D1642070BD4FF0FF3184EA010029
:101B10006940084301D16520F5E7C6E9084522463A
:101B20002B46304600F014F800BF307C40F0010036
:101B3000307400BF0020E6E710B50446204600F0F0
:101B400059F800BF207C20F00100207400BF10BDB8
:101B50002DE9FF5F81464FF0000BDA4600210F466A
:101B6000884600BF00F0B4F9834600BFDDE90201FA
:101B7000C9E908011E4804680FE0A4F1280ADAE95F
:101B80000810CD1940EB0806D9E90810491BB041EF
:101B900000D205E02F46B046246815488442ECD1B7
:101BA00000BFD9E90810C91B60EB0800C9E908109B
:101BB0000F4884420BD0BAF1000F08D0DAE90830A0
:101BC000D9E90812591A60EB0200CAE9081009F1B4
:101BD00028006168606004604160086000BF00BF69
:101BE00000BF584600F06EF900BFBDE8FF9F00003F
:101BF0004C00002070B50446002600BF00F068F9D4
:101C0000064600BF04F1280000F0A4FA08B1002045
:101C100001E0A06A28380546F5B11649A06A884255
:101C20001AD06FF001014810D4E908238A1A60EB3A
:101C30000300D5E90813511A984108D3D5E90820C3
:101C4000D4E90831D2184841C5E9082004E06FF012
:101C500001014810C5E9081000BFD4E90A10486026
:101C6000016000BF00BF00BF304600F02BF900BF8D
:101C700070BD00004C0000202DE9F04704460D46E1
:101C80004FF0000A00BF00F023F9824600BF27484A
:101C9000D0E9001009196841244AC2E9001024481B
:101CA00000F058FA30B100BF504600F00BF900BF09
:101CB000BDE8F0871E480068A0F12806D6E90801B3
:101CC000201A75EB010003D30021316271620CE030
:101CD000D6E90810091B60EB0500C6E9081000BF33
:101CE000504600F0EFF800BFE2E711480768D7F868
:101CF000009010E0A7F128080023D8E90810594007
:101D00005840014300D009E002214046FFF7A9FBFB
:101D10004F46D7F8009006488742EBD100BF00BF7E
:101D2000504600F0CFF800BF00BFC1E730000020F0
:101D30004C000020002070472DE9F04105460026A8
:101D4000002700BF00F0C4F8064600BF1B49D5E9D4
:101D50000420D1E90031D2184841C5E904201848CF
:101D600084680AE0A4F10807D5E90430D7E9041231
:101D7000591A904100D204E0246811480830844286
:101D8000F0D100BF05F10800616860600460416047
:101D9000086000BF00BF0A48816805F10800814261
:101DA00004D1074AD5E90410C2E9001000BF30464B
:101DB00000F088F800BFBDE8F0810000300000208E
:101DC000600000202DE9F0410446002700BF00F02C
:101DD0007FF8074600BF17488068A0F1080500BFDC
:101DE000D4E902104860016000BF00BFA54219D1CC
:101DF00004F108000168814201D1012100E00021C5
:101E000009B1002001E0A068083806462EB94FF05D
:101E1000FF31084A1160516004E0064AD6E9041017
:101E2000C2E9001000BF384600F04CF800BFBDE822
:101E3000F08100006000002070B51D48D0E900204E
:101E40001C49D1E90031D21A884100D270BD00F09E
:101E5000C9F8174885682E6820E0A5F108041548E0
:101E6000D4E90412D0E90030591A904100D219E0A7
:101E70002046FFF7A7FF208D022807D1D4E90801EB
:101E8000C4E904012046FFF757FF02E0032084F86D
:101E90002A00D4E90010884735462E6804480830E7
:101EA0008542DAD100BF00F0CBF800BFCEE70000DA
:101EB000600000203000002010B504462046FEF7E8
:101EC0005EF910BD10B504462046FEF755F910BD69
:101ED00010B5FEF74DF910BD10B5FEF75BFFFFF72B
:101EE000DDFB4FF440510948FFF7C0F9FFF7E6F971
:101EF000FFF70AF804460CB1204610BDFFF71AFFA1
:101F000004460CB12046F8E70020F6E7180C002044
:101F100000B500F05DF800B900BD08480078FA2867
:101F200001DB012000E0002000B1F5E70348007864
:101F3000401C0249087000BFEEE7000028000020A6
:101F400010B5002400F044F800B910BD00BFFFF741
:101F5000BFFF044600BFFFF701F828B900BF2046C5
:101F6000FFF7B0FF00BFF0E717480078401E1649A2
:101F70000870FEF7F3FF28B100BF2046FFF7A2FF6D
:101F800000BFE2E7FEF7F4FF28B100BF2046FFF7ED
:101F900099FF00BFD9E7FFF775FB0C4908600846B9
:101FA0000068FEF7EFFF28B100BF2046FFF78AFF69
:101FB00000BFCAE7FEF704FF00BF2046FFF782FF1D
:101FC00000BF00BFC1E70000280000203C00002047
:101FD00003480078012800D170470020FCE700008A
:101FE0002A00002010B5002400BFFEF7B7FF08B19B
:101FF000012000E0002010B14FF4C87010BD00BFF8
:10200000FFF7E6FF10B94FF4FA70F7E70B480078D6
:10201000FA2802DB4FF41670F0E700BFFFF758FF15
:10202000044600BF05480078401C0449087000BF02
:102030002046FFF747FF00BF0020DFE72900002010
:1020400010B5002400BFFEF789FF08B1012000E0B1
:10205000002010B14FF4C87010BD00BFFFF7B8FFEB
:1020600010B94FF4FA70F7E7FEF782FF10B940F2AB
:10207000A560F1E700BFFFF72BFF044600BF07484C
:102080000078401E0549087000BF2046FFF71AFF80
:1020900000BFFEF783FF0020DEE7000029000020DC
:1020A00010B5FFF795FF10B140F2F51010BDFFF726
:1020B000E9FA0649086008460068054908600120F9
:1020C00004490870FEF780FE0020EFE73C00002086
:1020D000380000202A00002070B505460C46214635
:1020E00028462268FEF78CFC70BD70B505460C468C
:1020F000224628466168FEF788FC70BDD0E90012D0
:102100004A60116000BF7047D0E900124A60116058
:1021100000BF704701460868884201D1012070471E
:102120000020FCE701460868884201D10120704781
:102130000020FCE701460868884201D10120704771
:102140000020FCE701460868884201D10120704761
:102150000020FCE701460868884201D10120704751
:102160000020FCE7006040607047006040607047FE
:1021700000604060704770B504460D46002600BF01
:102180000CB9012000E0002010B140F24C4070BDBD
:1021900000BF00BFFFF79CFE064600BF206948B99C
:1021A00000BF3046FFF78EFE00BF0020286040F2DF
:1021B000BD20ECE7606828606068006860602069A6
:1021C000401E206100BF3046FFF77CFE00BF0020AC
:1021D000DDE770B504460D46002600BF0CB90120AE
:1021E00000E0002010B140F24C4070BD00BF00BFC5
:1021F0000DB9012000E0002010B140F24C40F4E79E
:1022000000BF00BFFFF764FE064600BFD4E903101D
:10221000884207D300BF3046FFF754FE00BF4FF49B
:102220002F70E2E76068286065602069401C2061CB
:1022300000BF3046FFF746FE00BF0020D5E72DE97E
:10224000F04705460C4690461E4600BFFEF786FE48
:1022500008B1012000E0002018B14FF4C870BDE8BB
:10226000F08700BF00BF0CB9012000E0002010B1D2
:1022700040F24C40F3E700BF04F0030010B140F21D
:10228000BF20ECE706F0030010B140F2BE20E6E705
:10229000A14609EB06074FF0000A05E0C9F80070F7
:1022A000B94637440AF1010AA8F101005045F5D8B2
:1022B000002038602C606C60C5F81080C5F80C8078
:1022C000AE6000BFCBE72DE9F04105460E46A6F112
:1022D00008000421FEF707FD044605F0030018B1CD
:1022E0004FF44870BDE8F0810C2C02D3B4F1804F5C
:1022F00002D940F22130F5E76FF003012846FFF7DD
:1023000021F8074621463846FEF72CFD3846FEF7F1
:102310001AFD3846FEF721FD3846FEF7E9FC38463F
:10232000FEF7F6FC804600214046FEF71BFD4046C6
:10233000FEF71EFD4046FEF70BFD0020D2E710B56C
:10234000044600BF0CB9012000E0002010B140F2AB
:102350004C4010BD00BF2046FFF704FF0020F8E707
:102360002DE9F04105460E4617464FF0000800BF24
:10237000FFF7AEFD804600BF2846FFF7CBFE08B151
:10238000002000E02868044644B900BF4046FFF73B
:1023900099FD00BF40F28530BDE8F081A068306053
:1023A000E06838602046FEF77DFF00BF4046FFF73B
:1023B00089FD00BF0020EFE72DE9F04705460E46F6
:1023C000174698464FF0000900BFFFF781FD814690
:1023D00000BFFEF755FF044644B900BF4846FFF76B
:1023E00071FD00BF4FF46170BDE8F087A660E76043
:1023F00008F0010020B129462046FFF76DFE07E0F6
:1024000000BF2A4620466968FEF7FAFA00BF00BFFF
:1024100000BF4846FFF756FD00BF0020E4E710B5B7
:10242000044600BF0CB9012000E0002010B140F2CA
:102430004C4010BD00BF44F6EE312046FEF7D7FFFA
:1024400004F10C00FFF77BFF0020F2E72DE9F047D5
:1024500004460D461646DDE908784FF0000A00BF35
:102460000CB9012000E0002018B140F24C40BDE85A
:10247000F08700BF00BF0DB9012000E0002010B1BF
:1024800040F24C40F3E700BF00BF0EB9012000E06E
:10249000002010B140F24C40E9E700BF00BFFFF759
:1024A00017FD824600BF3246294604F10C00FFF7B3
:1024B00057FF30B900BF5046FFF704FD00BF0020B2
:1024C000D5E7002187EA010088EA0101084309D124
:1024D0002860306000BF5046FFF7F4FC00BF4FF4A7
:1024E000C860C4E7FEF744FD38B100BF5046FFF7AF
:1024F000E9FC00BF40F24160B9E73A464346214655
:1025000012480068FEF792FF00BF5046FFF7DAFC62
:1025100000BFFEF743FD0D49096891F84800FEF73A
:102520006EFF8146B9F1000F0ED108480068406D7A
:10253000286006480068806D306000200349096803
:102540004865024909688865484690E738000020D8
:1025500070B504460D4616460023324629462046ED
:10256000FEF7D4FF70BD000070B505460C4600268E
:1025700000BFFFF7ADFC064600BF0748057014B169
:102580000648046002E064200449086000BF304649
:10259000FFF798FC00BF70BD5800002054000020D9
:1025A0002DE9FC5F04468B4615461E460CAF97E8A6
:1025B00080070020019000BFFEF7D0FC08B1012089
:1025C00000E0002018B14FF4C870BDE8FC9F00BFC8
:1025D00000BF0CB9012000E0002010B140F24C40D7
:1025E000F3E700BF00BF0DB9012000E0002010B1EB
:1025F00040F24C40E9E700BF00BFB8F1000F01D145
:10260000012000E0002010B140F24C40DDE700BFA7
:10261000B9F1400F01D2012000E0002010B140F2DA
:102620007370D2E7092F05D12046FEF78DFC08B95B
:10263000012000E0002010B140F26E70C5E7092FC4
:1026400001DD012000E0002010B140F26E70BCE717
:102650002046FFF75AF94346194A31462846CDF835
:102660000090FEF7BCFB2060A560E660C4F804B0F3
:102670006774C4F81480C4F81890C4F84CA0BAF178
:10268000000F03D10F480068206501E0C4F850A096
:1026900000BFFFF71DFC019000BF00BF00202074A9
:1026A00000BF2046FEF7C8FF00BF0198FFF70AFCF5
:1026B00000BFFFF78DFC08B1FEF770FC002084E737
:1026C000B11800085400002070B504460D460026DD
:1026D00000BFFEF743FC08B1012000E0002010B16C
:1026E0004FF4C87070BD00BFFEF742FC10B140F25D
:1026F000A460F7E7002184EA01006940084301D1A2
:10270000012000E0002018B100F0F4F80020E9E713
:1027100000BFFFF7DDFB064600BF22462B460C48F4
:102720000068FFF7E5F930B100BF3046FFF7CAFB9C
:1027300000BF6520D6E706480068FFF72BF800BF0A
:102740003046FFF7BFFB00BFFEF728FC0020C9E7BB
:102750003800002070B50446002500BFFEF7FEFBE0
:1027600008B1012000E0002010B14FF4C87070BD26
:1027700000BF0CB9012000E0002008B12348046824
:102780002046FEF7E1FB10B140F26C70EFE7204607
:10279000FEF7F8FB28B1FEF7EBFB10B140F2A460A6
:1027A000E5E700BFFFF794FB054600BF04F13800E2
:1027B000FFF7C8FC10B92046FFF797F82046FFF74F
:1027C000BCF810B12046FEF7E5FF00BF207C00F00A
:1027D000010010B12046FFF7AFF900BF207C00F0E8
:1027E000020010B12046FEF7F3FD2046FFF78DF8FA
:1027F00000BF0820207400BF00BF2846FFF762FB1F
:1028000000BFFEF7CBFB0020B1E70000380000203E
:102810002DE9F04104460D46002700BF0CB9012008
:1028200000E0002018B140F24C40BDE8F08100BF4C
:1028300000BFFEF793FB08B1012000E0002010B1BB
:102840004FF4C870F1E700BF092D01DB012000E063
:10285000002010B140F26E70E7E700BFFFF738FBD1
:10286000074600BF607CA84208D100BF3846FFF78A
:1028700029FB00BFFEF792FB0020D6E704F13800E9
:10288000FFF760FC40B92046FFF717F80646B5424F
:1028900002DD84F84050354600BF207C00F0020085
:1028A00020B165742046FEF788FD19E000BF207C4A
:1028B00000F0010008B1657412E02046FFF73DF812
:1028C00070B12046FEF766FF65742046FEF75AFB9E
:1028D00018B12046FEF796FE02E02046FEF7ACFE59
:1028E00000BF3846FFF7EEFA00BFFEF757FB0020A7
:1028F0009BE7000010B50024FEF730FB00B110BDCF
:1029000000BFFFF7E5FA044600BF08480068FEF77D
:1029100041FF06480068FEF78FFE00BF2046FFF724
:10292000D1FA00BFFEF73AFB00BFE8E7380000200D
:1029300010B5FFF74DFB08B9012000E0002000B101
:1029400010BD01200021FFF797F9FFF775FA034941
:102950000968487CFEF750FF00BFF1E7380000200F
:10296000C80B00205000000088290008000000204B
:102970007C000000E2090008042A00087C00002016
:10298000B44C0000F209000800A24A040000000054
:10299000000000000102030406070809000000000F
:1029A00001020304010203040607080902040608E1
:1029B0000000000000000000000000000000000017
:1029C0000000000000000000E8030000000000001C
:1029D000000000004C0000204C00002064000000BB
:1029E0000100000000000000FFFFFFFFFFFFFFFFEE
:1029F00068000020680000207000002070000020A7
:042A000000000000D2
:0400000508000131BD
:00000001FF
