:020000040800F2
:10000000884B00204501000809040008010400088D
:1000100005040008E5020008A3090008000000002C
:10002000000000000000000000000000D1050008F2
:10003000E902000800000000B3010008BD06000846
:100040005F0100085F0100085F0100085F01000810
:100050005F0100085F0100085F0100085F01000800
:100060005F0100085F0100085F0100085F010008F0
:100070005F0100085F0100085F0100085F010008E0
:100080005F0100085F0100085F0100085F010008D0
:100090005F0100085F0100085F0100085F010008C0
:1000A0005F0100085F0100085F0100085F010008B0
:1000B0005F0100085F0100085F0100085F010008A0
:1000C0005F0100085F0100085F0100085F01000890
:1000D0005F010008350700085F0100085F010008A4
:1000E0005F0100085F0100085F0100085F01000870
:1000F0005F0100085F0100085F0100085F01000860
:100100005F0100085F0100085F0100085F0100084F
:100110005F0100085F0100085F0100085F0100083F
:100120005F0100085F0100085F0100085F0100082F
:10013000DFF80CD000F0C4F800480047D50E0008E6
:10014000884B00200648804706480047FEE7FEE748
:10015000FEE7FEE7FEE7FEE7FEE7FEE7FEE7FEE777
:10016000D50600083101000872B6704762B67047C4
:10017000EFF3108072B6704780F310887047B0FAC2
:1001800080F0704717484FF0FF010170002080F3A6
:10019000098815484FF08051016062B6FEE71248A9
:1001A0004FF08051016070470F484FF0805101605F
:1001B000704772B6EFF3098028B1203880E8F00F5D
:1001C0000A4909680860094809490A680260106814
:1001D00090E8F00F203080F309884EF0040E62B6EC
:1001E000704700BF22ED00E004ED00E03800002081
:1001F0003C0000202DE9F05F0546002092469B461A
:1002000088460646814640241BE02846414647462C
:10021000224600F045F853465A46C01A914110D381
:1002200011461846224600F02CF82D1A67EB0108FB
:100230004F4622460120002100F023F817EB000969
:100240004E41201EA4F10104DFDC484631462A4617
:100250004346BDE8F09F30B50B4601460020202202
:10026000012409E021FA02F59D4205D303FA02F5C3
:10027000491B04FA02F52844151EA2F10102F1DC23
:1002800030BD202A04DB203A00FA02F1002070473A
:100290009140C2F1200320FA03F3194390407047C4
:1002A000202A04DB203A21FA02F00021704721FACB
:1002B00002F3D040C2F12002914008431946704732
:1002C000064C074D06E0E06840F0010394E80700A3
:1002D00098471034AC42F6D3FFF72EFF08240008ED
:1002E0002824000800BFFEE770472DE9F0410246D0
:1002F00000250026002000230024002791F803C0D9
:100300000CF00F0591F803C00CF0100CBCF1000FBD
:1003100003D091F802C04CEA050591F800C0BCF189
:10032000000F31D0146800202BE04FF0010C0CFAC4
:1003300000F3B1F800C00CEA03069E4220D183000E
:100340004FF00F0C0CFA03F7BC4305FA03FC4CEA20
:10035000040491F803C0BCF1280F06D14FF0010C42
:100360000CFA00FCC2F814C00AE091F803C0BCF11A
:10037000480F05D14FF0010C0CFA00FCC2F810C078
:10038000401C0828D1D31460B1F800C0BCF1FF0FA5
:1003900034DD546800202EE000F1080C4FF0010815
:1003A00008FA0CF3B1F800C00CEA03069E4221D112
:1003B00083004FF00F0C0CFA03F7BC4305FA03FC63
:1003C0004CEA040491F803C0BCF1280F05D100F1F8
:1003D000080C08FA0CF8C2F8148091F803C0BCF1BC
:1003E000480F07D100F1080C4FF0010808FA0CF88B
:1003F000C2F81080401C0828CED35460BDE8F081BC
:1004000000BFFEE700BFFEE7704708B54FF4A060ED
:1004100000F046F825208DF8000001208DF801003D
:100420008DF802008DF80300684600F001F808BD61
:1004300070B5002100230F22C47804B3154C246842
:1004400004F4E064C4F5E064210AC1F10403CA4085
:10045000447804FA03F184781440214309010E4CD6
:100460000678A155047804F01F050124AC400578F6
:100470006D11AD0005F1E025C5F8004109E00478F3
:1004800004F01F050124AC40044D0678761145F8B0
:10049000264070BD0CED00E000E400E080E100E0EB
:1004A00002490143024A1160704700000000FA054A
:1004B0000CED00E010B5002807DA0A07140E054A13
:1004C00000F00F031B1FD45403E00A07130E024A67
:1004D000135410BD18ED00E000E400E029B1064A15
:1004E00092690243044B9A6104E0034A9269824391
:1004F000014B9A61704700000010024030B50021A6
:100500000022002400232D4D6D6805F00C0121B15F
:10051000042905D0082923D105E0294D056022E0F2
:10052000274D05601FE0254D6D6805F47012234DC1
:100530006D6805F48034022505EB92421CB9214D0B
:10054000554305600BE01D4D6D6805F400351DB188
:100550001C4D5543056002E0194D5543056002E00E
:10056000174D056000BF00BF144D6D6805F0F00128
:100570000909154D6B5C0568DD4045600F4D6D68E0
:1005800005F4E061090A104D6B5C4568DD4085604B
:100590000A4D6D6805F46051C90A0B4D6B5C4568E6
:1005A000DD40C560054D6D6805F44041890B074D80
:1005B0006B5CC568B5FBF3F5056130BD001002400A
:1005C00000127A0000093D001400002024000020E1
:1005D000704710B500F002F810BD00000CB5002007
:1005E000019000903348006840F480303149086041
:1005F00000BF3048006800F4003000900198401CB3
:100600000190009818B90198B0F5A06FF1D1294870
:10061000006800F4003010B10120009001E00020DB
:1006200000900098012843D12348006840F0100052
:10063000214908600846006820F003000860084669
:10064000006840F0020008601A4840681949486094
:100650000846406848600846406840F4806048604A
:100660000846406820F47C1048600846406840F422
:10067000E81048600846006840F08070086000BFDD
:100680000C48006800F000700028F9D00948406864
:1006900020F00300074948600846406840F0020027
:1006A000486000BF0348406800F00C000828F9D1FA
:1006B0000CBD0000001002400020024010B501F007
:1006C00023FB28B101F0C0FA01F082FE01F0D4FA58
:1006D00010BD000010B51348006840F0010011493A
:1006E000086008464068104908400E4948600846BE
:1006F00000680E4908400B4908600846006820F46D
:10070000802008600846406820F4FE0048604FF4EE
:100710001F008860FFF75DFF4FF00060044908602C
:1007200010BD0000001002400000FFF8FFFFF6FEC1
:1007300008ED00E010B540F22551064800F06DF8D4
:1007400038B1044800F024F9C4B22146014800F051
:1007500024F910BD0038014021B1828942F40052D1
:10076000828104E082894DF6FF731A4082817047CE
:1007700000B585B001210420FFF7B0FE01218803F8
:10078000FFF7ACFE4FF40070ADF8100018208DF8A4
:10079000130003208DF8120004A91748FFF7A5FDE8
:1007A0004FF48060ADF8100004208DF8130004A908
:1007B0001148FFF79AFD4FF4E13000900020ADF8AA
:1007C0000400ADF80600ADF80800ADF80C000C20F0
:1007D000ADF80A006946094800F06EF8FFF715FE0B
:1007E000012240F22551054800F041F8012103485B
:1007F000FFF7B2FF05B000BD00080140003801401E
:1008000002460020B1F5007F00D100BF13880B40E5
:100810000BB1012000E00020704770B502460024B3
:1008200000230025002040F66A16B14200D100BF27
:10083000C1F3421501F01F03012606FA03F3012D4F
:1008400002D19689334006E0022D02D1168A334048
:1008500001E0968A33400C12012606FA04F4168849
:10086000344013B10CB1012000E0002070BDF0B5A0
:100870000346002400260025002040F66A17B942EE
:1008800000D100BF1846C1F3421401F01F06012732
:1008900007FA06F5012C01D10C3004E0022C01D13D
:1008A000103000E014301AB107682F43076002E0EF
:1008B0000768AF430760F0BD2DE9F04786B00546F5
:1008C0000E460024A24600BFA1460027B08900B111
:1008D00000BF2F462C8A4CF6FF700440F08804437A
:1008E0002C82AC894EF6F3100440B088318908435D
:1008F000718908430443AC81AC8A4FF6FF40044041
:10090000B0890443AC8201A8FFF7F8FD1F48874275
:1009100002D1DDF810A001E0DDF80CA0A88900F4F8
:10092000004040B10AEBCA0000EB0A1031684900F0
:10093000B0FBF1F807E00AEBCA0000EB0A103168DF
:100940008900B0FBF1F86420B8FBF0F00401200945
:10095000642101FB1089A88900F4004040B13220D5
:1009600000EBC900B0FBF1F000F00700044308E021
:10097000322000EB09106421B0FBF1F000F00F0011
:1009800004432C8106B0BDE8F08700000038014028
:1009900001468888C0F308007047C1F308028280CE
:1009A000704700BFFEE700000FB4054B10B503A968
:1009B000044A029800F02CF810BC5DF814FB00000B
:1009C000650D00087800002010B50446204600F0B0
:1009D000DBF9401E10BD02E008C8121F08C1002A42
:1009E000FAD170477047002001E001C1121F002AB0
:1009F000FBD17047506002604160086070475060F2
:100A00000260416008607047486001607047000004
:100A10002DE9FF4F8BB09A460F460546002606E0AB
:100A200025280BD052460D9990476D1C761C2878CE
:100A30000028F5D10FB03046BDE8F08F0024A04665
:100A40000122604900E0044315F8013F203B02FA0F
:100A500003F00842F7D128782E2817D115F8010F96
:100A600044F004042A280ED06FF02F022878A0F159
:100A7000300109290AD808EB880102EB410100EB9B
:100A800001086D1CF2E757F8048B6D1C2878692863
:100A90003ED006DC0028CDD063280BD0642804D1DA
:100AA00036E0732810D075284BD052460D999047E8
:100AB000761C85E017F8040B8DF8000000208DF8F7
:100AC0000100E946012003E057F8049B4FF0FF3096
:100AD00061074FF0000401D40AE0641C44450DDABC
:100AE0008442FADB19F804100029F6D106E0641CF0
:100AF0008442FCDB19F804100029F8D1264404E0F4
:100B000019F8010B52460D999047641EF8D257E030
:100B100001CF4FF00A0B002802DA40422D2102E0FB
:100B2000210504D52B218DF82410012103E0E107D4
:100B300005D02021F7E70DF1200908910CE00021F4
:100B4000F9E701CF4FF00A0BF9E75946FFF783FBAE
:100B500001F1300209F8012D0028F6D1ADEB0900B2
:100B600000F1200B600701D44FF00108D84502DDE9
:100B7000A8EB0B0000E000208046002406E009A856
:100B80005246005D0D999047641C761C089884427B
:100B9000F5DB04E0302052460D999047761CB8F101
:100BA0000001A8F10108F5DC05E019F8010B524637
:100BB0000D999047761CBBF10001ABF1010BF4DC01
:100BC0006D1C34E7092801000246481E1040101A27
:100BD00070477CB50446204600F040F805466A465A
:100BE00001A900F04BFA2046DDE9002100F0D4F81D
:100BF0007CBD70B50446204600F004F805462C6024
:100C0000284670BD2DE9F0410446204600F026F844
:100C1000061F204600F027F80746314600F0BAFAD2
:100C200005462846BDE8F081416841F00101416078
:100C30007047416841F0020141607047416821F00E
:100C4000020141607047027902F003020A434260E8
:100C50007047416821F001014160704701464868D2
:100C600020F003007047014601F10800704710B5FD
:100C7000FFF795FA10BD000010B507480CC80748EB
:100C800000680021FFF7B6FA0549086008460068C9
:100C900000F00EF810BD0000400000200000002011
:100CA0004800002010B5FFF77FFA10BDFFF76AFA81
:100CB00010B50446002000F062FB204600F045FB22
:100CC00010BDF0B50446059D581920F007004FF0FF
:100CD0008077061F30463760061F30463460061F97
:100CE000304632604FF01237061F304637604FF003
:100CF0000337061F304637604FF00237061F304675
:100D000037607F10061F30463760061F304631605F
:100D10004FF01137061F304637604FF01037061F6F
:100D2000304637604FF00937061F304637604FF0C6
:100D30000837061F304637604FF00737061F30462A
:100D400037604FF00637061F304637604FF00537E3
:100D5000061F304637604FF00437061F30463760B5
:100D6000F0BD000070B504460D46E1B20548FFF73E
:100D700014FE00BF80210348FFF742FD0028F9D090
:100D8000204670BD0038014010B50446204600F0F2
:100D90002FFFC0F1200010BD30B5114C04EBC11481
:100DA00054F8223083600E4C743CC460D8607434B4
:100DB00004EBC11444F82200094C743C2569012459
:100DC0008C402543064C743C2561143454F8215062
:100DD000012494402C43024D603D45F8214030BD34
:100DE000E43A002000BF00BFFEE700001FB500206E
:100DF00008490968084A12680923CDE90032CDE99B
:100E000002100346054A06A1074801F019F904B08B
:100E100010BD00000424000800240008E50D0008AF
:100E200069646C6500000000B809002001460348B1
:100E3000814201D1012070470020FCE7B809002061
:100E40000348007808B1012070470020FCE700004B
:100E5000280000200348007808B1012070470020D6
:100E6000FCE7000029000020014604480068814298
:100E700001D1012070470020FCE70000380000206D
:100E800010B50024FFF7DCFF00B110BDFFF7E2FF53
:100E900000B1FAE700BF00F0B7FE044600BF00F063
:100EA000C9FA0B49086008460068FFF7DDFF28B162
:100EB00000BF204600F0A2FE00BFE6E7FFF7D7FE26
:100EC00000BF204600F09AFE00BF00BFDDE7000033
:100ED0003C0000201FB5FFF74BFC26A0FFF764FD88
:100EE00000F096FE4FF4FA71002001F00FF828A0F0
:100EF000FFF75AFD00212C4801F024F804461CB1EC
:100F000021462AA0FFF750FD34A0FFF74DFD142025
:100F10004FF48061354A0323CDE90032CDE9021058
:100F20000023334A33A1354801F08AF804461CB146
:100F3000214633A0FFF738FD3CA0FFF735FD142014
:100F40004FF480613D4A0423CDE90032CDE902101F
:100F500000233B4A3BA13D4801F072F804461CB116
:100F600021463BA0FFF720FD00F036FF002004B033
:100F700010BD000057656C636F6D6520746F205461
:100F8000656E63656E744F532074696E790D0A0047
:100F900063726561746520746573745F73656D5FFA
:100FA00030300D0A000000008000002054656E63A0
:100FB000656E744F53204372656174652074657368
:100FC000745F73656D5F3030206661696C212063EA
:100FD0006F6465203A202564200D0A006372656104
:100FE0007465207461736B310D0A0000600100208C
:100FF000711700087461736B3100000090000020CD
:1010000054656E63656E744F5320437265617465F9
:10101000207461736B31206661696C2120636F6499
:1010200065203A202564200D0A0000006372656186
:101030007465207461736B320D0A00006005002036
:10104000D11700087461736B32000000F8000020B3
:1010500054656E63656E744F5320437265617465A9
:10106000207461736B32206661696C2120636F6448
:1010700065203A202564200D0A0000002DE9F0418A
:1010800004460F469046802C06D200252046E117E4
:1010900004EB91718E1009E02046FFF795FC0546A0
:1010A000681F44FA00F080F02006AD1F3D60C8F8CC
:1010B0000060BDE8F08100000E4A13469A60DA60D5
:1010C00000221A61002011E000230A4A143242F87B
:1010D0002030002107E0074B03F1740202EBC0123D
:1010E00042F82130491C2029F5DB401C1828EBDB95
:1010F00070470000703A002070B504460D46FFF7B7
:10110000DBFF2946204600F0C4FE70BD10B5002468
:101110000BE0074901EB041000F0B2FE044901EBBB
:101120000410044900F074FE641C0A2CF1D310BDB5
:10113000E44600207000002070B50446256900BF19
:10114000D4E906104860016000BF00BF00202061A4
:1011500095F840000A2808D095F84010284601F07C
:10116000A7F80A2085F8400009E0687C217D8842C4
:1011700005D0217D284601F09BF80A20207570BD1E
:1011800010B504462046FFF7D7FF0421204600F0A3
:10119000BFF810BD02465018704770B50446201DB8
:1011A00000F04EFE08B1002001E0606830380546CE
:1011B0000DB1687C70BD0A20FCE710B50446201D07
:1011C00000F03EFE10BD70B502460B461D1D28689E
:1011D00007E0A0F13006517C747CA14200DA02E005
:1011E0000068A842F5D100BF02F1300144684160B7
:1011F00008604C60216000BF00BF536400BF117CD9
:1012000041F00201117400BF70BD10B5044604F135
:10121000300000F00FFE2046616CFFF7D4FF10BDD8
:1012200010B5044604F1300000F004FE00206064B4
:1012300000BF207C20F00200207400BF10BD70B5FC
:1012400004460D462580201D00F01DFE70BD0146A0
:10125000012901D100207047022902D140F24360E8
:10126000F9E7032902D140F24460F4E7042902D1EE
:1012700040F24560EFE740F24260ECE72DE9F041D3
:1012800006460F4614461D46304600F05BF93946C7
:101290003046FFF798FF4FF0FF3184EA01006940C4
:1012A000084304D022462B46304600F0BDFABDE884
:1012B000F08170B504460D4600BF207C00F00200AE
:1012C00020B184F848502046FFF7AAFF00BF207CD9
:1012D00000F0010010B1204600F0CAFA00BF207CE7
:1012E00000F0040000B170BD204600F051F800BFCE
:1012F000F9E770B505460E46144624B9314628462E
:1013000000F019F803E03146284600F001F870BDFE
:101310002DE9F04105460F466C68266806E0A4F109
:1013200030003946FFF7C5FF34462668281D844241
:10133000F5D1BDE8F08170B504460D466168A1F1B4
:1013400030002946FFF7B5FF70BD70B5044625464D
:10135000B5F1807F00D311E025F07F40401E4FF0B3
:10136000E02148610F214FF0FF30FFF7A3F8002084
:101370004FF0E02188610720086100BF70BD10B503
:10138000044621464FF0FF30FFF794F810BD0000EF
:1013900010B50446607C06490968497C884203D13F
:1013A000204600F021F802E0204600F003F810BDCE
:1013B000380000202DE9F04105466E7C094800EB1D
:1013C000C604204600F044FD10B1304600F09CF801
:1013D00005F13007214638462268FFF710FB00BFB1
:1013E000BDE8F0816009002070B50446657C0848BE
:1013F00000EBC506304600F02BFD10B1284600F08A
:1014000083F8314604F1300000F00BFD70BD0000A0
:101410006009002070B50446054800EBC405284665
:1014200000F016FD08B1002070BD28683038FBE7D9
:1014300060090020044890F85400034A02EBC00100
:101440000868303870470000600900200A210E4A01
:1014500082F854100021084608E00B4A02EBC00154
:101460000960496000BF411CC9B208460A28F4D38C
:10147000002006E000220449503141F82020411CA0
:10148000C8B20028F6D0704760090020014606481F
:1014900000EBC1021068A0F13003186B904201D13B
:1014A000012070470020FCE76009002070B5064667
:1014B0000A4800EBC605284600F0CAFC60B92C6853
:1014C00000BFD4E90010FFF79FFA00BF294620466D
:1014D00000F0A7FC00BF00BF70BD00006009002045
:1014E00070B50025074C03E005F12000C5B2241DAE
:1014F00020680028F8D0206800F07AFB2844C5B2A4
:10150000284670BDB009002000BF42110C4951F8B7
:10151000221000F01F02C2F11F0301229A40114362
:101520004311074A42F8231000BFA2F1500191F87D
:101530005410814203DDA2F1500181F8540070473C
:10154000B009002070B505466C7C164800EBC40657
:1015500000BFD5E90C10FFF757FA00BF304600F086
:1015600077FC98B100BF61110E48503050F821004F
:1015700004F01F01C1F11F02012191408843621153
:101580000849503141F8220000BF00BF054890F8DB
:101590005400A04204D1FFF7A3FF024981F8540090
:1015A00070BD00006009002070B50546002629487E
:1015B000007800B170BD00BF00F026FB064600BFFA
:1015C0002846FFF727FF04461CB12046FFF72EFCF4
:1015D00028B100BF304600F011FB00BFEAE7284603
:1015E000FFF754FF28B100BF304600F007FB00BFF3
:1015F000E0E7FFF72FFC28B100BF304600F0FEFA0D
:1016000000BFD7E7206D10B1206D401E2065206D12
:1016100028B100BF304600F0F1FA00BFCAE70E491A
:101620000968487CFFF742FF2846FFF7F3FE0446AF
:10163000E06C18B909480068206501E0E06C20659D
:1016400000BF304600F0DAFA00BFFFF719FC00BF18
:10165000B0E70000580000203800002054000020AF
:1016600070B504460D46002600BF0CB9012000E00D
:10167000002010B140F24C4070BD00BF00BF00F030
:10168000C3FA064600BFA0894FF6FF71884207D112
:1016900000BF304600F0B2FA00BF4FF4E160EBE764
:1016A0002046FFF78AFD48B1A089401CA08100BFF9
:1016B000304600F0A3FA00BF0020DDE72A460121F2
:1016C0002046FFF716FE00BF304600F097FA00BF35
:1016D000FFF7D6FB0020CFE710B5002000F08AFD11
:1016E00010BD2DE9F04105464FF00A08AE6B09E048
:1016F000A6F118073846FFF750FD0446444500DAC6
:10170000A046366805F138008642F1D14046BDE872
:10171000F08170B50546AC6B266805E0A4F11800B1
:10172000FFF72EFD3446266805F138008442F5D1D6
:1017300070BD10B5044604F1280000F0A7FB04F1C9
:10174000300000F0A3FB04F1380000F09FFB0A20FA
:1017500084F84000002084F8480060646065A0655B
:1017600010BD0146087C08B9012070470020FCE745
:1017700016E04FF0FF3213460A4800F0F9FB04462A
:1017800014B909A0FFF710F940F24460844207D170
:101790000AA0FFF709F96FF00100411000F0E4FC26
:1017A000E7E700008000002073656D2070656E64BF
:1017B00020737563636573730D0A00007175657539
:1017C000652069732064657374726F790D0A000077
:1017D00009A0FFF7E9F80DE00B4800F029FC0446EA
:1017E0001CB1214609A0FFF7DFF84FF47A70002101
:1017F00000F0BAFCF0E700007461736B3220727580
:101800006E6E696E670D0A008000002073656D20A2
:1018100070656E64206661696C2120636F64652069
:101820003A202564200D0A0070B5064614461D4670
:10183000002184EA01006940084301D1642070BDA1
:101840004FF0FF3184EA01006940084301D165206F
:10185000F5E7C6E9084522462B46304600F014F865
:1018600000BF307C40F00100307400BF0020E6E78C
:1018700010B50446204600F059F800BF207C20F047
:101880000100207400BF10BD2DE9FF5F81464FF0BD
:10189000000BDA4600210F46884600BF00F0B4F97D
:1018A000834600BFDDE90201C9E908011E4804685A
:1018B0000FE0A4F1280ADAE90810CD1940EB080678
:1018C000D9E90810491BB04100D205E02F46B046C7
:1018D000246815488442ECD100BFD9E90810C91B1F
:1018E00060EB0800C9E908100F4884420BD0BAF138
:1018F000000F08D0DAE90830D9E90812591A60EB6C
:101900000200CAE9081009F12800616860600460FB
:101910004160086000BF00BF00BF584600F06EF98C
:1019200000BFBDE8FF9F00004C00002070B50446DA
:10193000002600BF00F068F9064600BF04F1280049
:1019400000F096FA08B1002001E0A06A28380546A8
:10195000F5B11649A06A88421AD06FF0010148100B
:10196000D4E908238A1A60EB0300D5E90813511A59
:10197000984108D3D5E90820D4E90831D218484164
:10198000C5E9082004E06FF001014810C5E908101E
:1019900000BFD4E90A104860016000BF00BF00BF6B
:1019A000304600F02BF900BF70BD00004C00002055
:1019B0002DE9F04704460D464FF0000A00BF00F045
:1019C00023F9824600BF2748D0E900100919684171
:1019D000244AC2E90010244800F04AFA30B100BF9E
:1019E000504600F00BF900BFBDE8F0871E480068C4
:1019F000A0F12806D6E90801201A75EB010003D3EF
:101A00000021316271620CE0D6E90810091B60EB1D
:101A10000500C6E9081000BF504600F0EFF800BF0F
:101A2000E2E711480768D7F8009010E0A7F128080E
:101A30000023D8E9081059405840014300D009E07C
:101A400002214046FFF735FC4F46D7F80090064884
:101A50008742EBD100BF00BF504600F0CFF800BF77
:101A600000BFC1E7300000204C000020002070477C
:101A70002DE9F04105460026002700BF00F0C4F81C
:101A8000064600BF1B49D5E90420D1E90031D21830
:101A90004841C5E90420184884680AE0A4F1080711
:101AA000D5E90430D7E90412591A904100D204E074
:101AB0002468114808308442F0D100BF05F10800C5
:101AC0006168606004604160086000BF00BF0A4850
:101AD000816805F10800814204D1074AD5E9041064
:101AE000C2E9001000BF304600F088F800BFBDE832
:101AF000F081000030000020600000202DE9F0415E
:101B00000446002700BF00F07FF8074600BF1748D3
:101B10008068A0F1080500BFD4E9021048600160A8
:101B200000BF00BFA54219D104F10800016881423D
:101B300001D1012100E0002109B1002001E0A068ED
:101B4000083806462EB94FF0FF31084A116051603F
:101B500004E0064AD6E90410C2E9001000BF384686
:101B600000F04CF800BFBDE8F081000060000020EC
:101B700070B51D48D0E900201C49D1E90031D21AC6
:101B8000884100D270BD00F0C9F8174885682E68FA
:101B900020E0A5F108041548D4E90412D0E900308A
:101BA000591A904100D219E02046FFF7A7FF208D77
:101BB000022807D1D4E90801C4E904012046FFF74F
:101BC00057FF02E0032084F82A00D4E90010884778
:101BD00035462E68044808308542DAD100BF00F04F
:101BE000CBF800BFCEE700006000002030000020EE
:101BF00010B504462046FEF7C2FA10BD10B50446E3
:101C00002046FEF7B9FA10BD10B5FEF7B1FA10BDC7
:101C100010B5FFF731F8FFF719FC4FF440510948B0
:101C2000FFF76AFAFFF772FAFFF7E0F804460CB123
:101C3000204610BDFFF71AFF04460CB12046F8E716
:101C40000020F6E7700A002000B500F05DF800B94A
:101C500000BD08480078FA2801DB012000E00020E0
:101C600000B1F5E703480078401C0249087000BF46
:101C7000EEE700002800002010B5002400F044F832
:101C800000B910BD00BFFFF7BFFF044600BFFFF75C
:101C9000D7F828B900BF2046FFF7B0FF00BFF0E734
:101CA00017480078401E16490870FFF7C9F828B198
:101CB00000BF2046FFF7A2FF00BFE2E7FFF7CAF828
:101CC00028B100BF2046FFF799FF00BFD9E7FFF713
:101CD000B1FB0C49086008460068FFF7C5F828B159
:101CE00000BF2046FFF78AFF00BFCAE7FEF7DAFF12
:101CF00000BF2046FFF782FF00BF00BFC1E7000022
:101D0000280000203C00002003480078012800D172
:101D100070470020FCE700002A00002010B50024D6
:101D200000BFFFF78DF808B1012000E0002010B1DE
:101D30004FF4C87010BD00BFFFF7E6FF10B94FF4B5
:101D4000FA70F7E70B480078FA2802DB4FF41670B8
:101D5000F0E700BFFFF758FF044600BF05480078D2
:101D6000401C0449087000BF2046FFF747FF00BF32
:101D70000020DFE72900002010B5002400BFFFF796
:101D80005FF808B1012000E0002010B14FF4C870E6
:101D900010BD00BFFFF7B8FF10B94FF4FA70F7E7B6
:101DA000FFF758F810B940F2A560F1E700BFFFF760
:101DB0002BFF044600BF07480078401E0549087005
:101DC00000BF2046FFF71AFF00BFFFF759F80020B9
:101DD000DEE700002900002010B5FFF795FF10B1E5
:101DE00040F2F51010BDFFF725FB064908600846D4
:101DF000006805490860012004490870FEF756FF95
:101E00000020EFE73C000020380000202A000020DE
:101E100070B505460C46214628462268FEF7EAFDC5
:101E200070BD70B505460C46224628466168FEF72F
:101E3000E6FD70BDD0E900124A60116000BF704736
:101E400001460868884201D1012070470020FCE764
:101E500001460868884201D1012070470020FCE754
:101E600001460868884201D1012070470020FCE744
:101E700001460868884201D1012070470020FCE734
:101E800000604060704700604060704700604060E4
:101E900070472DE9F04105460E46A6F108000421E1
:101EA000FEF792FE044605F0030018B14FF44870A7
:101EB000BDE8F0810C2C02D3B4F1804F02D940F27E
:101EC0002130F5E76FF003012846FFF763F9074675
:101ED00021463846FEF7B7FE3846FEF7A5FE3846DF
:101EE000FEF7ACFE3846FEF774FE3846FEF781FE7C
:101EF000804600214046FEF7A6FE4046FEF7A9FEBA
:101F00004046FEF796FE0020D2E7000070B5054679
:101F10000C46002600BFFFF777FE064600BF0748C5
:101F2000057014B10648046002E0642004490860AA
:101F300000BF3046FFF762FE00BF70BD58000020B2
:101F40005400002070B504460D4600BF0CB90120B6
:101F500000E0002010B140F24C4070BD00BF41F6DF
:101F6000EE312046FFF76BF9A5810020F5E7000070
:101F70002DE9F041044615461E46002700BF0CB966
:101F8000012000E0002018B140F24C40BDE8F08193
:101F900000BF00BFFEF754FF08B1012000E00020A1
:101FA00010B14FF4C870F1E700BF00BFFFF72CFE7F
:101FB000074600BFA089002809DDA089401EA08136
:101FC00000BF3846FFF71AFE00BF0020DEE7002101
:101FD00085EA01007140084307D100BF3846FFF78A
:101FE0000DFE00BF4FF4C860D0E7FEF733FF38B1F5
:101FF00000BF3846FFF702FE00BF40F24160C5E770
:102000002A463346214609480068FFF737F900BFE2
:102010003846FFF7F3FD00BFFEF732FF03490968BA
:1020200091F84800FFF713F9B0E7000038000020EE
:1020300010B5044600212046FFF712FB10BD00003A
:102040002DE9FC5F04468B4615461E460CAF97E80B
:1020500080070020019000BFFEF7F2FE08B10120CA
:1020600000E0002018B14FF4C870BDE8FC9F00BF2D
:1020700000BF0CB9012000E0002010B140F24C403C
:10208000F3E700BF00BF0DB9012000E0002010B150
:1020900040F24C40E9E700BF00BFB8F1000F01D1AA
:1020A000012000E0002010B140F24C40DDE700BF0D
:1020B000B9F1400F01D2012000E0002010B140F240
:1020C0007370D2E7092F05D12046FEF7AFFE08B99D
:1020D000012000E0002010B140F26E70C5E7092F2A
:1020E00001DD012000E0002010B140F26E70BCE77D
:1020F0002046FFF71EFB4346194A31462846CDF8D5
:102100000090FEF7DEFD2060A560E660C4F804B034
:102110006774C4F81480C4F81890C4F84CA0BAF1DD
:10212000000F03D10F480068206501E0C4F850A0FB
:1021300000BFFFF769FD019000BF00BF00202074C1
:1021400000BF2046FFF750F900BF0198FFF756FD8A
:1021500000BFFFF7D9FD08B1FEF792FE002084E72B
:10216000D91600085400002070B504460D4600261C
:1021700000BFFEF765FE08B1012000E0002010B1AD
:102180004FF4C87070BD00BFFEF764FE10B140F29E
:10219000A460F7E7002184EA01006940084301D107
:1021A000012000E0002018B100F0F4F80020E9E779
:1021B00000BFFFF729FD064600BF22462B460C480C
:1021C0000068FFF731FB30B100BF3046FFF716FD66
:1021D00000BF6520D6E706480068FFF7B3F900BFE7
:1021E0003046FFF70BFD00BFFEF74AFE0020C9E7AF
:1021F0003800002070B50446002500BFFEF720FE21
:1022000008B1012000E0002010B14FF4C87070BD8B
:1022100000BF0CB9012000E0002008B12348046889
:102220002046FEF703FE10B140F26C70EFE7204647
:10223000FEF71AFE28B1FEF70DFE10B140F2A460C1
:10224000E5E700BFFFF7E0FC054600BF04F13800FA
:10225000FFF706FE10B92046FFF75BFA2046FFF7AE
:1022600080FA10B12046FFF76DF900BF207C00F026
:10227000010010B12046FFF7FBFA00BF207C00F000
:10228000020010B12046FEF7CBFF2046FFF751FABF
:1022900000BF0820207400BF00BF2846FFF7AEFC37
:1022A00000BFFEF7EDFD0020B1E700003800002080
:1022B0002DE9F04104460D46002700BF0CB901206E
:1022C00000E0002018B140F24C40BDE8F08100BFB2
:1022D00000BFFEF7B5FD08B1012000E0002010B1FD
:1022E0004FF4C870F1E700BF092D01DB012000E0C9
:1022F000002010B140F26E70E7E700BFFFF784FCEA
:10230000074600BF607CA84208D100BF3846FFF7EF
:1023100075FC00BFFEF7B4FD0020D6E704F13800DD
:10232000FFF79EFD40B92046FFF7DBF90646B542B0
:1023300002DD84F84050354600BF207C00F00200EA
:1023400020B165742046FEF760FF19E000BF207CD5
:1023500000F0010008B1657412E02046FFF701FAB1
:1023600070B12046FFF7EEF865742046FEF77CFD5D
:1023700018B12046FFF71EF802E02046FFF734F8B8
:1023800000BF3846FFF73AFC00BFFEF779FD00209A
:102390009BE7000010B50024FEF752FD00B110BD10
:1023A00000BFFFF731FC044600BF08480068FFF794
:1023B000C9F806480068FFF717F800BF2046FFF786
:1023C0001DFC00BFFEF75CFD00BFE8E73800002001
:1023D00010B5FFF799FC08B9012000E0002000B11A
:1023E00010BD01200021FFF7E3FAFFF7C1FB03490D
:1023F0000968487CFFF7D8F800BFF1E738000020F3
:10240000200A0020500000002824000800000020BE
:102410007C000000D6090008A42400087C000020ED
:102420000C4B0000E609000800A24A04000000006E
:102430000000000001020304060708090000000074
:102440000102030401020304060708090204060846
:10245000000000000000000000000000000000007C
:102460000000000000000000E80300000000000081
:10247000000000004C0000204C0000206400000020
:102480000100000000000000FFFFFFFFFFFFFFFF53
:10249000680000206800002070000020700000200C
:0424A0000000000038
:0400000508000131BD
:00000001FF
